:020000040800F2
:1000000060050020D1000008BD210008A11F0008E4
:1000100000000000000000000000000000000000E0
:10002000000000000000000000000000C1210008E6
:100030000000000000000000BF210008C3210008EC
:10004000E3000008E3000008E3000008E300000804
:10005000E3000008E3000008E3000008E3000008F4
:10006000E3000008E3000008E3000008E3000008E4
:10007000E3000008E3000008E30000083122000864
:10008000E3000008E3000008E3000008E3000008C4
:10009000E3000008E3000008E3000008E3000008B4
:1000A000E3000008E3000008E3000008E3000008A4
:1000B000E3000008E3000008E30000080348854669
:1000C00000F08EF800480047A52A000860050020CF
:1000D0000448804704480047FEE7FEE7FEE7FEE7E6
:1000E000FEE7FEE72F220008BD00000830B50B46F2
:1000F000014600202022012409E00D46D5409D4202
:1001000005D31D469540491B254695404019154687
:10011000521E002DF1DC30BDF0B51FB406460020A4
:1001200082B005464024019100901BE001992246CF
:100130000F46304600F042F8049A059B801A994118
:1001400010D310461946224600F028F8361A8F417F
:100150000197224601200021009F00F01FF8381867
:100160004D4100902046641E0028DFDC019B009872
:100170002946324607B0F0BDD2B201E00270401C01
:10018000491EFBD270470022F6E710B513460A4617
:1001900004461946FFF7F0FF204610BD10B5202A8F
:1001A00004DB0146203A9140002010BD91402023FD
:1001B0009C1A0346E3401943904010BD10B5202A15
:1001C00004DB0846203AD040002110BD0B46D34046
:1001D000D0402024A21A91400843194610BD0000C7
:1001E000064C0125064E05E0E36807CC2B430C3C8A
:1001F00098471034B442F7D3FFF764FFE82B0008A8
:10020000082C000870B5044600688168002549077D
:100210001FD58168890704D48168B94A0A40103221
:10022000826000F095FD064620688068400710D582
:1002300000F08EFD801B0328F6D3206880684007FD
:10024000F2D5A06D10210143A165E06D0125284381
:10025000E065284670BDC04670B5044601688868F0
:100260008A680026800726D401200240002A22D076
:100270008A6805231340012B1FD18868A04A0240D9
:10028000901C88600320086000F062FD054620682D
:100290008068C0070FD000F05BFD401B0328F6D339
:1002A00020688068C007F2D0A06D10210143A165CD
:1002B000E16D012006E0304670BDA16D10220A43B9
:1002C000A265E16D0143E16570BDC046F8B5044625
:1002D0000027009700688168C90746D18168884B6C
:1002E0001A462F32114208D0A06D10210143A1659A
:1002F000E06D01252843E06538E08168194001255B
:10030000294381601B48006800020CD51A48006828
:100310001A49FFF7EBFE401C01E00098401E0090D8
:1003200000980028F9D1607E01281ED000F010FD51
:10033000064620680168C90717D18168C90705D139
:1003400081686F4A114001220A43826000F000FD7B
:10035000801B0328EDD320680068C007E9D1A06D99
:1003600010210143A165E06DC4E73D46284601B078
:10037000F0BDC0460827014008000020400D0300E2
:10038000F8B5062103910121029101900F4801A9BE
:1003900000F0BAF8002801D000F01AF88FBDC0466E
:1003A000B0B5FFF7EDFF094C204600F09DFB7D2026
:1003B000C100204600F03CFB204600F0DFF9054676
:1003C000204600F0BFFB2846B0BDC0461C00002000
:1003D000EFF3108072B6FEE7F0B587B00446002652
:1003E00006965420205C012801D1022077E02046A7
:1003F000543001210590049101702046FFF72CFF35
:100400002568A968A26DC90759D1029081214900C8
:100410008A43901CA065E868E968374A0A40EA60A8
:100420003649014001912846B4300390344F354A93
:100430003146304615E0AB683B4018371F43AF608C
:10044000AB68002B06DA069B5B1C0693069B934267
:10045000F6D33AE0039B1B687F271F403818491CDE
:10046000274F0729E7D9AA683A40049B1A43AA6094
:10047000FFF73CFE039B19687F22914301431960FB
:10048000A868384002273843A86000F061FC0546A0
:1004900020688168C90724D000F05AFC401B03285B
:1004A000F6D320688068C007F2D0A06D1021014308
:1004B000A165E06D04990843E06508460FE010214E
:1004C0000A430599A2650E7009E0A06D1021014351
:1004D00002208143A165002005990870049807B0A7
:1004E000F0BDC168019A1143C160A16D01220A43A8
:1004F000BA4305990298E5E7FC7FFFFF03800000FF
:10050000E8FFFF7F00F20200F0B589B000250895F2
:100510005422825C012A01D10224E8E006465436C6
:1005200001243470026893685B0711D404694B6836
:10053000022B12D1042004438A48844253D18848B4
:10054000C0430B68D9430143906A084090624BE076
:10055000816D20220A438265C8E00796069304262F
:1005600034437F4B7F4FBC424ED10F683B40906A73
:10057000184313462833079E1860380289680140E3
:10058000794B0B4051698143194351610024002F7D
:1005900000DBABE007208205744803681946114070
:1005A0003846734FB84278D0724FB8427FD11B02A1
:1005B00000D59BE00123DB056C480768974339436E
:1005C00019430160F7480068F749FFF78FFD0C21D8
:1005D00041430C31089102E00898401E08900898A9
:1005E0000028F9D182E00B680024002B7EDAF24863
:1005F00001685F4A93426DD05F4A93426DD05D4A75
:10060000934273D1052266E0019604951F27069C4C
:1006100027400F2500950597BD40046E0295AC4319
:1006200003940F681F4250D0FB07049D2C46079E81
:1006300065D1BB075ED47B075ED43B075ED4FB0667
:10064000019C5CD4BB0671D47B0671D43B0671D48B
:10065000FB0571D40197BB0570D4019B5B056FD47A
:10066000019B1B056ED4019BDB046DD4019B9B0495
:100670006CD4019B5B046BD4019F3B04009C049DE4
:10068000079E3CD4FB0366D4019B9B0365D4019F6A
:100690007B03DB1712241C4019E0DB0126D4012365
:1006A0001B06C54807689743394319431DE0324F7D
:1006B000B8421BD10127BF053B40002B16D1BE48D5
:1006C00003689343194339430FE07B00DC0E049D1C
:1006D000079E14E00322920501E00322D205114097
:1006E000072292050368934359180160357020462C
:1006F00009B0F0BD012402E0022400E00324059BC0
:100700009C40039B1C430466069B9B08C06998425F
:1007100000D832E70298C043936A0340B800000F44
:10072000059CA04018431346283325E70524E6E737
:100730000624E4E70724E2E70824E0E7092408E0C8
:100740000A2406E00B2404E00C2402E00D2400E05F
:100750000E24019FBBE71024FBE71124F9E7C046F4
:10076000FFFF07000400008000FFFF07082701408B
:10077000004000B8001000B0002000B40068006C19
:1007800070470000F0B585B00026049600283ED0E2
:100790000546806D002806D1284600F00FF9542048
:1007A00000212954E96501273C072B689868C0009F
:1007B000039313D498687A4901402143996079489A
:1007C00000687949FFF792FC039B4000801C01E020
:1007D0000498401E049004980028F9D12846583007
:1007E0009968214207D1A96D10220A43AA65E96DD3
:1007F00001263143E9659A681946036810242340AD
:100800005207D20F9A18026803D02243C3E001278F
:10081000C2E0664B1A40921C02608A68D2070196B9
:10082000009418D1AA682B7E9B0313436A7ED203DF
:100830001A43AB7E5E031643EC6834432E6B0122F1
:10084000002E174600D137463E033443296900295C
:1008500003DB520504E02B6956E0D6070A46B24393
:1008600014432C22AA5C5200224320242E5D012E28
:100870000CD1002B07D0AB6D2343AB65EB6D01248E
:100880001C43EC6502E001231B041A432C463C3454
:100890006B6A002B029105D00726B6013340134343
:1008A000AA6A1A430399CB68414E1E401643CE6094
:1008B000032293076A6816461E40EF6C374324787C
:1008C000012C08D12C6C6E6CA96C274337430F4365
:1008D00001243C4300E03C4603990E69354F374004
:1008E00027430F610124E607B2420CD09A420AD096
:1008F000A3079A4207D00F239B041A402E4C266868
:100900009E43B2182260029B6E6B03994C690722CA
:100910009443029634434C61AC6B4E697027BE43DE
:10092000240134434C6101277C05A3420AD0002BEB
:10093000029B18D11D49F331039EB46A0C43314622
:1009400028310FE08C6AEC69A4001C341C26264078
:10095000164C3B462746F337B7402C6E3C431F46A8
:100960002831029B0C6003994C6914409C4208D1C9
:100970000021E965A96D01220A4302218A43019FF2
:1009800009E0A86D0099084302218843A865EA6D33
:100990003A435C3528460260384605B0F0BDC04693
:1009A000E8FFFF6F08000020400D0300FDFEFFFF81
:1009B0000102FEFF02FCFF1F08270140B0B594B002
:1009C00004460FA81421FFF7DEFB02A83421FFF72D
:1009D000DAFB20681449884224D100240A940125B6
:1009E000A803029002A800F045FA002801D0FFF702
:1009F000EFFC28050D49CA680243CA60CA68024074
:100A0000019201980868284308600868284001900E
:100A100001981194032010900F90052000070FA952
:100A200000F0C0F814B0B0BD002401403410024002
:100A3000F8B50D4604464069082801D1082704E0AE
:100A40002068C068C0073AD1042700F081F9064643
:100A500021680868384215D1681CF9D000F078F98F
:100A6000002D02D0801BA842F2D9206800683842CD
:100A7000EED1542000212154A06D04210143A16531
:100A800003202FE001204202A36D1343A365CA682F
:100A90001205920F20D1A27E002A1DD10A681207EA
:100AA0001AD58A68520710D448680C2290434860CF
:100AB000FF200230A26D8243501CA0650CE0A06DA7
:100AC00020210143A16501200CE0A26D20231343E6
:100AD000A365E26D0243E265227E0020002A01D177
:100AE0000C220A6001B0F0BD70B504460068816850
:100AF000022049070ED45421615C01290AD0254601
:100B0000543501262E702046FFF7E0FB002802D066
:100B10000021297070BDA06D0849014030020818FD
:100B2000A0650020E06521681C220A6028708A68A0
:100B3000034B13401A1D8A6070BDC046FEF0FFFFD4
:100B4000E8FFFF7FB0B504465420205C012801D1A6
:100B50000220B0BD25465435012028702046FFF7FD
:100B600051FB00280BD12046FFF776FB002806D169
:100B7000FF200230A16D8143481CA06500200021A8
:100B80002970B0BDB0B5044600F0E2F80546601C1F
:100B900002D090480078041900F0DAF8401BA04217
:100BA000FAD3B0BDF0B588B007465C48874201D0A3
:100BB000052000E0032000900026059607963346A6
:100BC0000697A4E0012402949C402540002D00D10A
:100BD00095E0049303964E68032332461A40501E54
:100BE00001281AD803230196079EB340B86898439A
:100BF000CF68B7400743069887600198C006C00FCA
:100C0000049EB040069F7F68A7430743069847604D
:100C1000069FD8437400019E08E01846079CA04038
:100C2000C043032A02D1079C1A461CE0FB6803401C
:100C30008F68A7401F43069BDF60069F022A12D1E0
:100C40001C22059B1A400F239340049EF608B60011
:100C5000BE19376A9F430B6993403B43069F33623B
:100C60004E6803223240A2403B68034013433B607E
:100C7000B003800F039E049B41D0182434400F2002
:100C8000A04003229343264AD218136E8343603256
:100C900005200007874208D02348874207D0234811
:100CA0008742009804D1022002E0002000E0029870
:100CB000A040184310601A4800684B68DA0201D55A
:100CC000284300E0A843164A106050689A0201D5F4
:100CD000284300E0A843124A5060124840689A0333
:100CE00001D5284300E0A8430E4A50601068DA039B
:100CF00001D5284300E0A843049B0A4A1060083647
:100D00000598001D05900798801C07905B1C0D68D6
:100D10002846D84000D055E708B0F0BD000C005080
:100D200000180240801802400004005000080050E3
:100D300042690B4693430A401104C9188161704708
:100D4000002A01D0182200E02822815070470000BC
:100D5000054800687047C0461E48007802490A6886
:100D6000101808607047C0465C010020B0B501242F
:100D7000200207490A6802430A600025284600F05D
:100D800009F8002802D100F027F82C462046B0BD13
:100D90000020024070B50F4E31780124002916D092
:100DA00005467D20C000FFF7A1F901462F480068E5
:100DB000FFF79CF900F08EFC032D08D8002806D11F
:100DC0000024E0432946224600F02CF875602046B6
:100DD00070BDC04600000020E0B50B48416801220C
:100DE0001143416041681140019101991107026866
:100DF0000A43026000680840009000980320400207
:100E000000F05EFC8CBDC0463C100240002805DBB3
:100E10001F21084001218140014801607047C04600
:100E200000E100E080B501F0E3FD80BDF8B50325E9
:100E30006902814E32688A43024332600127790297
:100E4000002488420ED1E248016806204843084940
:100E5000FFF74CF9F943081A7169490502D5401C9E
:100E6000FAD12C46204601B0F0BDC0460800002053
:100E700040420F00F0B585B00446807880076D4F82
:100E800001D400255BE001221107386BC0000291FC
:100E900002D50020039007E0386B08433863386BB5
:100EA000084004900498039201921602624F386839
:100EB00030433860FFF74CFF05463868304207D1B1
:100EC000FFF746FF401B0228F7D90325594F2FE0B3
:100ED000032529025748006D0840002820D0216BC7
:100EE00088420DD053480346006D019909041A6DDC
:100EF0000A431A651A6D8A431A65504908401865F5
:100F0000C0070DD0FFF724FF0646A74F4948006DE4
:100F1000800705D4FFF71CFF801BB842F6D9D5E740
:100F2000444F386D45490840216B01433965002520
:100F30000398002803D0386B0299884338632068EF
:100F4000C10705D0B96C0322914362680A43BA64B1
:100F5000810705D5B96C0C229143A2680A43BA6493
:100F6000C10606D503218902BA6C8A43E1681143A0
:100F7000B964810506D503218904BA6C8A43A16945
:100F80001143B964410506D503210905BA6C8A43AA
:100F9000E1691143B964810606D503210903BA6CDE
:100FA0008A4321691143B964012142040CD5BA6C0A
:100FB000234B1A40266A3243BA645A1C964203D124
:100FC0000A043B6813433B60020305D5BA6C402317
:100FD0009A43636A1343BB648A0583020AD5BB6CD8
:100FE0009343A66A3343BB64964203D10B063E6823
:100FF0001E433E6010420AD00A06BB6C9343E66A69
:101000003343BB64964202D13B6813433B60000507
:101010000DD5880303229203BB6C9343626913438B
:10102000BB64824203D10804396801433960284611
:1010300005B0F0BD0C10024000700040FFFCFFFF47
:10104000FFFFFF3FFEB50D460121002800D1A6E0BD
:10105000019102905348006807242040A84214D20E
:10106000504801460068A043284308604E4EFFF7F1
:101070006FFE07464B4800682040A84205D0FFF7A6
:1010800067FEC01BB042F5D988E0029B1868810753
:10109000704E0CD5410703D5210332680A433260F4
:1010A0000F21090232688A43996811433160C007F1
:1010B00019D13C4800682040A8422AD93948014645
:1010C0000068A04328430860374FFFF741FE0646FB
:1010D000344800682040A8421BD0FFF739FE801B2F
:1010E000B842F5D95AE05868032830D8810002A2E6
:1010F0005158584A8F46C04609110008551100083A
:101100005F1100086911000811460839096849058E
:101110002CE0029A107840074E4D05D5200329682F
:101120008143D0680843286000F056F8296889098F
:101130003C220A401D4989581F220A40D0402449B8
:1011400008601B480068FFF725FE014627E0414A7A
:10115000516D0AE0114608390968890306E0114615
:1011600008390968890101E0916D8907019916D54F
:101170001168A143014311600B4FFFF7E9FD0646DB
:10118000344800683821014002984068C00081421C
:101190008FD0FFF7DDFD801BB842F1D9032108464F
:1011A00003B0F0BD0020024088130000502B00085F
:1011B000040000200648006826490968890A1C22A4
:1011C0000A40044989581F220A40D0407047C0464F
:1011D00008000020902B000810B51E4C20688006E7
:1011E000400F06D0226838210A401B48082A07D140
:1011F00010BD083C20688004410F1848C84010BD4D
:1012000022680A40102A15D1616803220A40032A85
:1012100000D0124861684906490F491CFEF766FF75
:1012200061684904490E48436168490F491CFEF74B
:101230005DFF10BD20680840202802D10120C003B6
:1012400010BD20680840182801D0002010BD7D2066
:10125000000210BD0810024000127A000024F400C1
:10126000F0B587B00125002800D1F3E10495059081
:101270000078C007F94F47D105980078800774D4EB
:1012800005980078000700D59FE0059A1078400780
:1012900000D5B1E0D469002C00D1DAE1B86838217A
:1012A0000140102900D0F4E0012C00D1B1E0F86831
:1012B00003210140059B1A6A914200D0A9E07021E8
:1012C00001405A6A914200D0A3E07F210902014007
:1012D0009A6A1202914200D09BE01F21490401400A
:1012E000DA6A914200D094E007214A0602401C4687
:1012F0001B6B9A42049D00D0ACE149070840616B2A
:10130000884200D1A5E1A5E1B868F96803252A461D
:101310008A433821014010204840821850425041F1
:10132000082960D000285ED105984468012318047C
:101330008442039308D0396805221204944200D0F5
:10134000E4E09A0411433960396801433960FFF7DA
:10135000FFFC064603984404386820428CD1FFF70E
:10136000F7FC801B6428F7D974E1B968382008407D
:1013700010214140FA680326324002235340CA1824
:10138000514251410125AC02002844D0002942D1EC
:10139000059AD1683868002900D19CE00721C9026C
:1013A0008843116901433960280239680143396073
:1013B000FFF7CEFC05463868204200D09CE0FFF7DE
:1013C000C7FC401B0228F6D994E0B86838210140D8
:1013D000182948D1386E800700D456E705988069EF
:1013E000002816D051E73868800300D444E70598F8
:1013F000406800280DD03FE7B86838210140202917
:101400005FD1F86D800700D444E79068002800D0D1
:1014100040E7049D1EE139682142059B03D0D9684D
:10142000002900D116E17F2109027A688A435969AF
:1014300009021143796000280DD10720C0023968E4
:10144000814318690843386038688004400F954923
:10145000C1409548016095480068FFF79BFC002853
:1014600000D0F7E00CE705988169386E002971D04B
:10147000012108433866FFF76BFC0646386E80078B
:1014800000D502E7FFF764FC801B03250228F5D98D
:10149000E0E0012529063868049188433860FFF7A9
:1014A00057FC0646022C49D103956C063868204249
:1014B00000D19EE0FFF74CFC801B03250228F5D9E4
:1014C000C8E001221107F86BC0000191039252D5C8
:1014D0000020029057E0290288433860FFF738FC6B
:1014E00005463868204200D1CAE6FFF731FC401BB0
:1014F0000228F6D93546ADE07F20000279688143A5
:1015000005984069000208437860B9E68143396074
:101510009804396881433960FFF71AFC0646002CAD
:1015200000D017E7039844043868204200D1A3E6AE
:10153000FFF70EFC801B6428F6D98BE06C06386838
:10154000204200D181E0FFF703FC801B0325022825
:10155000F5D97FE0012188433866FFF7F9FB06469D
:10156000386E800700D490E6FFF7F2FB801B03255E
:101570000228F5D96EE0F86B0843F863F86B084071
:101580000690069802924A480068C00514D4039851
:10159000040247480146006820430860FFF7D8FB73
:1015A000064643480068204206D1FFF7D1FB801B66
:1015B00003250228F5D94DE0059884683D4D012C9E
:1015C00005D0F86D052C4BD104210843F865F86D62
:1015D00003990843F865FFF7BBFB06462C46F86DF8
:1015E000800754D4FFF7B4FB801B0325A042F6D933
:1015F00030E0F868314901400598026A456A836A1B
:10160000C66A0196066B0296406B0A432A4319028A
:101610001143019A1143029A11430143F96038685A
:1016200004990843386003980007F9680143F9609A
:10163000FFF78EFB0646386820420AD1FFF788FB89
:10164000801B03250228F6D904E0F8681A490140F6
:10165000F9600025284607B0F0BDC04600100240E2
:1016600003998843F865F86D04218843F865FFF70E
:101670006FFB0646002CB1D12C46F86D800706D5CD
:10168000FFF766FB801B0325A042F6D9E2E702982C
:101690000028059A00D1FDE5F86B01998843F863AD
:1016A000F8E5C0460024F4000800002004000020F3
:1016B0000070004088130000FCFFFEEE8C80C1111A
:1016C00003214902024A13688B43034313607047A6
:1016D00000000140401E010E01D001207047074963
:1016E000074A5060074803680B40032189075918CF
:1016F000016000209060072111607047FFFFFF002C
:1017000010E000E020ED00E07047704770470000F7
:10171000F0B53C22825C012A01D10220F0BD0246D4
:101720003C32012313703D24022505550468666888
:10173000A568524FBC4201D0374604E00F273F0551
:10174000BE434F6837433D307026B7430E683E4373
:1017500066609E07B44208D0464EB44205D0464E5D
:10176000B44202D0454EB44204D18026B5438968C4
:101770002943A160037000201070F0BDB0B50028AF
:101780002CD004463D20205C25463D35002805D15F
:101790003C2000212154204600F022F8022028702D
:1017A000214601C900F04CFD4821012060543E2132
:1017B00060543F21605440216054412160544221D3
:1017C00060544321605444216054452160544621B3
:1017D00060544721605428700020B0BD0120B0BD86
:1017E0001CB501218A070068904200D01CBD094841
:1017F00002680A43026000680840019001980F24C3
:10180000002120460A46FFF70DFB2046FFF7FEFAAF
:101810001CBDC0463C10024010B53D21415C012971
:1018200021D101463D3102220A700168C8680122B7
:101830001043C8609007814208D00E48814205D00D
:101840000D48814202D00D4881420ED188680C4B70
:1018500003400020062B0CD01404A34209D00B68CF
:1018600013430B6010BD012010BD086810430860D1
:10187000002010BD0004004000400140002C014049
:1018800007000100FEB504463C20205C012801D180
:1018900002227BE025463C3501262E703D200222A7
:1018A0002254206882683C4B1340836027463D37B2
:1018B0000B6800220292002B2BD0102B29D0202B5A
:1018C00027D0302B25D0402B2BD0502B33D0602B62
:1018D0003BD07203934242D032039342029C224691
:1018E00052D0702B55D14A6801928B68C96800911B
:1018F000FF2424028168A143029C019A1343009AA9
:1019000012021A430A438260816877220A43826086
:1019100039E08168214A0A40134307211943816055
:1019200030E0CA68496800F017FE206881681B4AE9
:101930000A40473225E0CA68496800F00DFE206879
:101940008168164A0A4057321BE0CA68496800F0AD
:1019500014FE20688168114A0A40673211E04A6823
:1019600001928B68CA68FF2424028168A143019C0C
:10197000234312021A430A438260012189038268C9
:101980000A438260029C22463E702C70104603B0CF
:10199000F0BD3246F8E7C0468800CEFF88FFCFFF93
:1019A00070470000B0B50446006801698907554DCD
:1019B00017D5C168890714D52946FE310161012177
:1019C00021778069800703D02046FFF7E9FF05E013
:1019D000204600F0D5F8204600F086F90020207758
:1019E00020680169490718D5C168490715D52946F6
:1019F000FC3101610221217780698005800F03D0CD
:101A00002046FFF7CDFF05E0204600F0B9F820465C
:101A100000F06AF90020207720680169090717D5CE
:101A2000C168090714D52946F831016104212177DD
:101A3000C069800703D02046FFF7B2FF05E02046CB
:101A400000F09EF8204600F04FF900202077206833
:101A50000169C90618D5C168C90615D52946F031EE
:101A6000016108212177C0698005800F03D02046DD
:101A7000FFF796FF05E0204600F082F8204600F0D0
:101A800033F90020207720680169C90709D0C168AF
:101A9000C90706D02946FF310161204600F09EF9B2
:101AA00020680169090609D5C168090606D52946D5
:101AB000803101612046FFF728FE20680169C905D1
:101AC00007D5C168090604D505612046FFF71CFE4D
:101AD00020680169490609D5C168490606D5294625
:101AE000C0310161204600F083F920680169890650
:101AF00007D5C168890604D5E03505612046FFF7A2
:101B000005FEB0BDFFFEFFFF70B586B0044601A81C
:101B10001421FEF738FB012080072168814227D17C
:101B200014480168042211430160016811400091CA
:101B3000009901680225294301600068284000904F
:101B40000098059500260496039602953020019092
:101B5000094801AC2146FFF725F805950496039640
:101B6000029503208002019004482146FFF71AF8ED
:101B700006B070BD34100240000800500004005050
:101B80007047000070B505463C20285C012801D153
:101B9000022070BD0C462E463C36012030700221DA
:101BA000CA41052A6AD8C0467A441279520097443D
:101BB0000211213040502868214600F099FB286826
:101BC000816908220A43826181690422914381610B
:101BD00018303CE02868214600F0BAFB0121CA0217
:101BE0002868836913438361890282698A43826119
:101BF00018303DE02868214600F0E0FB2868C16904
:101C000008220A43C261C16904229143C1611C30A8
:101C10001DE02868214600F013FC0121CA02286853
:101C2000C3691343C3618902C2698A43C2611C301C
:101C30001EE02868214600F031FC2868416D08222A
:101C40000A434265416D0422914341655430216944
:101C500010E02868214600F04FFC0121CA022868E4
:101C6000436D134343658902426D8A434265543094
:101C70002169090202680A430260002000213170D4
:101C800070BDB0B500282CD004463D20205C254610
:101C90003D35002805D13C2000212154204600F08C
:101CA00022F802202870214601C900F0C9FA482113
:101CB000012060543E2160543F2160544021605413
:101CC00041216054422160544321605444216054B6
:101CD00045216054462160544721605428700020FB
:101CE000B0BD0120B0BD704770470000B0B50446DC
:101CF0003E30002913D00A1F0223DA41032A0DD8EF
:101D00007A4412795200974401030507401C06E00B
:101D1000801C04E0C01C02E0001D00E0401D0078B3
:101D200001280FD100290FD00A1F0220C241032A27
:101D30000ED8C0467A44127952009744010B0D0F19
:101D40003F220CE00120B0BD3E200222225407E0D9
:101D5000432204E0402202E0412200E04222A0545B
:101D6000206801252A4600F0B5FA216816480818AF
:101D70000A22D041072808D82A468240E1200242A0
:101D800003D0E8034A6C02434A64A807814208D0A2
:101D90000E48814205D00E48814202D00D48814252
:101DA0000CD188680C4A02400020062A0AD02B0475
:101DB0009A4207D00A682A430A60B0BD08682843DF
:101DC00008600020B0BDC04600D4FEBF0004004043
:101DD00000400140002C01400700010080B503488D
:101DE0000168491C016000F087FE80BD18000020DA
:101DF000704770B58021415C012901D1022112E0B8
:101E00000246803284232421C15004682568216859
:101E10000126B1432160002141667607B543256064
:101E20002024C4501170084670BDF8B504468020C7
:101E3000205C012801D102201AE0254680350120CE
:101E4000287084262422A2512268176813688343CD
:101E5000136007204006936883430B43936020463A
:101E600000F09EFB206807602020A0510020287011
:101E700001B0F0BDF8B504468020205C012801D1F6
:101E800002201AE02546803501202870842624226D
:101E9000A251226817681368834313600720400724
:101EA000936883430B439360204600F079FB2068DE
:101EB00007602020A0510020287001B0F0BDB0B50F
:101EC000002831D004468420205825468435002837
:101ED00005D1802000212154204600F029F824203B
:101EE0002860206801680125A9430160204600F0B0
:101EF00011FC012819D0A06A002802D0204600F069
:101F000075FB0920C00221684A6882434A608868DC
:101F10002A22904388600868012202430A60204612
:101F200000F0C0FB054600E001252846B0BD0000DA
:101F3000B0B594B004460FA81421FEF724F902A806
:101F40003421FEF720F920689B49884226D10024DD
:101F500004940225029502A8FEF78CFF002801D008
:101F6000FEF736FA01204104434A93680B4393601D
:101F700093680B4001930199116801431160116846
:101F800001400191019913901294119010950C2029
:101F90000F90052000070FA9FEF704FE14B0B0BD96
:101FA000FEE70000BFB52C211548002444543C2115
:101FB0004454C464446284620125C5618476048308
:101FC0000421104A046344638463AB071CC00460AB
:101FD000446081600394029401940C38FEF7D2FBB4
:101FE000002801D0FEF7F4F9039402940195044807
:101FF00001A9FEF789FA002801D0FEF7E9F9BFBD73
:102000001C00002000240140F0B587B0002006909D
:1020100002460090184801680423194301600168D2
:102020001940019101990168202529430160016847
:102030002940019101990168012739430160016834
:10204000394001910199016802242143016000682F
:102050002040019001980520060730462946FEF7EA
:102060006FFE0594009804900397029502A93046EC
:10207000FEF798FD07B0F0BD34100240B0B58EB049
:1020800000240D940C940B940A94099408940794DA
:1020900068461C21FEF777F8684884612B490F22B7
:1020A0000125AB07036042608460C1600461FFF7F3
:1020B00065FB002801D0FEF78BF928030A905F48E2
:1020C0000AA9FFF7DFFB002801D0FEF781F95B4882
:1020D000FFF7D7FD002801D0FEF77AF9099407949D
:1020E000564807A9FFF714FB002801D0FEF770F946
:1020F000049402940194602000905048694622465E
:10210000FFF740FD002801D0FEF762F94B48694611
:102110000422FFF737FD002801D0FEF759F94748A0
:1021200069460822FFF72EFD002801D0FEF750F97E
:10213000424869460C22FFF725FD002801D0FEF732
:1021400047F93E48FFF7E0FC0EB0B0BDE7030000E2
:1021500010B5184C0C200021174AE1235B020CC477
:1021600021606160A160E060083C204618301421C5
:10217000FEF709F82046FFF7A2FE002801D0FEF77F
:1021800027F90C480021FFF775FE002801D0FEF763
:102190001FF908480021FFF748FE002801D0FEF78C
:1021A00017F90448FFF725FE002801D0FEF710F9C3
:1021B00010BDC046CC00002000440040FEE7704740
:1021C000704780B5FEF7C8FD80BD70B592B004AD14
:1021D000281D3421FDF7D7FF0024039402940194B5
:1021E000009401267002FEF721FE0B944020099016
:1021F000089430020790022004902846FFF730F838
:10220000002803D0EFF3108072B6FEE70394029427
:1022100001940720009068462146FEF713FF00282E
:1022200003D0EFF3108072B6FEE712B070BD7047B6
:1022300080B50248FFF7B6FB80BDC0468000002095
:10224000B0B5056801229407A04205D0774B9842AB
:1022500002D01E4B984204D170239D434B682B4300
:1022600000E02B46A04211D0184CA0420ED0184CD2
:10227000A0420BD06D4CA04208D06D4CA04205D0BE
:102280006C4CA04202D06C4CA0421CD1032424020E
:10229000A343CC681C4380239C434B6923430360C6
:1022A0008B68C3620B688362AA4BC3180A24E3419C
:1022B000072B06D814469C40E1231C4201D0096933
:1022C00001634261B0BD1C46E5E7C0460004004022
:1022D0000020004010B51F230B4001219940046AE3
:1022E0008C4304629A40016A1143016210BD0000F0
:1022F000F0B5026A0125AA430262026A02239A43E8
:10230000436886698C681443474F37400A683A43EC
:10231000904E86190A27FE41072E16D8B540E126B1
:10232000354212D00C25AC43CD680426B543254375
:1023300003242402A3434C698E691C433443446044
:102340008261496841630562F0BD25461C46F6E797
:1023500070B5026A10239A430262046A20229443F1
:10236000436885698A68120122434B4E2E400C68EF
:10237000240234432D4DA84209D02D4DA8420DD042
:102380002C4DA8420AD02C4DA84207D00FE0C02502
:10239000AA43CD682D014026B5432A430325AD024B
:1023A000AB434D698E69AD001D43B3002B434360C1
:1023B000846149688163026270BDC04670B50124C2
:1023C0002202036A93430362056A4268C369164E98
:1023D0001E400B6833436402A5438C6824022C43DF
:1023E000124DA84209D0124DA8420ED0114DA8425C
:1023F0000BD0114DA84208D010E00325AD02AC432C
:10240000CD682D020D4E2E40344303252D03AA43E3
:102410004D698E692D01154332012A434260C36123
:102420004968C163046270BD8CFFFEFF002C01404F
:1024300000400140004801400044014000FBFFFF14
:10244000F0B501231A03046A944304625A03056A2F
:1024500095434468C6698A6812032A430E4F374081
:102460000D682D023D433B4E86190A27FE41072E7B
:102470000FD81F46B740E12637420AD09B039C4342
:102480004B699B0123434360C56149680164026253
:10249000F0BD2346F7E7C046FF8CFFFEF8B5154AAE
:1024A00013467033046A1C400462076A446800944F
:1024B000456D15400A682A4301267504AF438D68AF
:1024C0002D043D43234FC7190A24E741072F0ED897
:1024D000BE40E12426420AD0009C1C404B691B02EE
:1024E000234343604265496881650562F8BD009BEE
:1024F000F7E7C0468FFFFEFFF0B501231A05046A17
:10250000944304625A05056A95434468466D8A6897
:1025100012052A430E4F37400D682D023D430D4EE4
:1025200086190A27FE41072E0FD81F46B740E1261D
:1025300037420AD09B049C434B699B022343436070
:1025400045654968C1650262F0BD2346F7E7C046AC
:10255000FF8FFFFE00D4FEBFB0B5036A046A0125F9
:10256000AC4304628469F025AC43120122438261CA
:102570000A2293430B430362B0BD10B5036A1024D3
:10258000A34303620F231B0384699C43120322436A
:10259000036A8261A022934309011943016210BDBD
:1025A000F8B50446406E002814D02068866880681C
:1025B000400F0C49095C0C4F385CC000FDF796FDDC
:1025C00005463001400F0749095C385CC000FDF743
:1025D0008DFD01E001252846682160526A202552C0
:1025E000F8BDC046E02B0008D82B0008B0B5816AC2
:1025F000CA0707D00122520403685C689443C26A88
:1026000022435A608A0707D50122120403685C68D6
:102610009443026B22435A604A0707D50122920471
:1026200003685C689443426B22435A600A0707D5EB
:102630000122D20303685C689443826B22435A6090
:10264000CA0607D50122120303689C689443C26B33
:1026500022439A608A0607D50122520303689C68C8
:102660009443026C22439A604A0610D50122130556
:10267000026854689C43456C2C4354609D4206D1CB
:1026800003235B0554689C43836C23435360090612
:1026900007D50121C904026853688B43C06C1843F5
:1026A0005060B0BD7CB505468C2000242C50FEF750
:1026B0004FFB06462868016809070CD5144869468F
:1026C00008600120410500222846334600F026F923
:1026D00000280FD12868006840070DD50C486946CE
:1026E00008600120810500222846334600F016F9D3
:1026F000002801D0032407E08420202129508820CD
:10270000295080202C54EC66204602B070BDC04693
:10271000FFFFFF01F8B50446C26940692169A56859
:1027200023681E686E4F37400D43054315433D43F4
:102730001D6003200090000359688143E06808434E
:102740005860A169674DAB4202D0206A084300E09F
:1027500008469968644F0F4007439F60D86A0F216D
:102760008843616A0843D8626048614FBB4212D017
:102770000027604EB3421AD05F4EB34217D0AB422F
:102780000CD05E4EB34211D15D4B1B689B071B0FF3
:102790005C4DEF580DE05A4E366802E0584E3668F0
:1027A000360A0C273740574EF75900E01027AB4246
:1027B00020D00125EB039A420ED1082F00D960E00A
:1027C0007F443F797F00BF44045C2C5C255C5C5CEB
:1027D0002B00FEF7EFFC1FE0082F52D87F443F7913
:1027E0007F00BF44044E3A4E334E4E4E3900FEF742
:1027F000E1FC2DE00125082F43D8C0467F443F79F6
:102800007F00BF44043E4E3E463E3E3E4C00FEF737
:10281000D1FC40E0FEF7E0FC002831D0616A00E026
:1028200018464900384A515AFDF760FC400061687B
:102830004A081018FDF75AFC0246103A33498A42FA
:102840001FD201400007400F084317E0FEF7C4FC09
:10285000002815D0616A00E0184649002A4A515AFA
:10286000FDF744FC61684A081018FDF73FFC02467A
:10287000103A26498A4204D20F3108402168C860C4
:1028800000250020206760672348A066284601B025
:10289000F0BDFEF7A1FC0028F2D0616A01E0012042
:1028A000C0034900184A515AFDF720FC626800999C
:1028B00051438842E5D311038842E2D8010E530800
:1028C00000020026C01871413346FDF725FC10496F
:1028D0004118104A9142D4D82168C8603546D0E7E3
:1028E000F369FFCF00800040FFF4FF110024F400E3
:1028F0000044004000480040004C004000380140C7
:1029000054100240C82B0008B02B0008F0FF000054
:1029100000FDFFFFFFFC0F0001000100FEB51646A1
:102920000F460468014688310191089DE1693940EC
:10293000C91B4A424A41B24234D1691CF6D004460E
:102940000293FEF705FA029B002D2ED0C01AA84272
:102950002BD82046246821684907E7D5E169090595
:10296000E4D50121CA022262EFF3108481F31088BA
:102970000D22520103681D6895431D6084F3108881
:10298000EFF3108481F31088026893688B4393609F
:1029900084F310888422202181508822815001995B
:1029A000091D1EE0002003B0F0BDEFF310810126E9
:1029B00086F310880D225201204623681D68954336
:1029C0001D6081F31088EFF3108186F31088226870
:1029D0009368B343936081F3108884222021A1502F
:1029E000019920220A608022002181540320DAE725
:1029F000002805DB0322034693430C4A9A1806E09D
:102A00000F220240083A03239A43074BD21880074B
:102A1000C00E8901C9B28140FF23834010689843EA
:102A2000084310607047C0461CED00E000E400E081
:102A300080B50020FDF7B4FC80B280BD0C4A914205
:102A400000D31146401E032811D8C04678440079AF
:102A5000400087440104070A0648016070470548A2
:102A6000416070470348816070470248C160704709
:102A7000E70300003400004080B57D208000FEF7B1
:102A800081F880BD80B5052000072021FEF750F9B0
:102A900080BD80B5FFF7F6FF7D208000FFF7ECFFDB
:102AA00080BD0000FEF762F9FFF78FFBFFF7ACFA7D
:102AB000FFF74EFBFFF776FAFFF7E0FA0B48FDF75A
:102AC0008BFC0B4C2046FEF7A7FE0021094D20464B
:102AD000A84704212046A84708212046A8470C21E2
:102AE0002046A847FFF7D5FFFCE7C0461C000020A2
:102AF00080000020ED1C0008B0B5FFF799FF0A49DF
:102B0000086049680120094DA8474B208400022035
:102B10002146A847C83403202146A847AF2081009A
:102B20000420A847B0BDC046100000203D2A000880
:102B300002E008C8121F08C1002AFAD17047704786
:102B4000002001E001C1121F002AFBD170470000E4
:102B50000000000000000000000000000000000075
:102B60000000000000000000000000000000000065
:102B7000010000000200000003000000040000004B
:102B80000600000007000000080000000900000027
:102B90000000000000000000000000000000000035
:102BA000010000000200000003000000040000001B
:102BB000010002000400060008000A000C001000DA
:102BC0002000400080000001000000000400000020
:102BD00002000000080000000101010307010000DD
:102BE0000804020408010101082C0008000000206C
:102BF00010000000302B0008182C000810000020E6
:102C000050050000402B00080100000004000000F7
:082C10000024F40000000000A4
:04000005080000BD32
:00000001FF
