:020000040800F2
:1000000060050020D10000084D2C000809290008D7
:1000100000000000000000000000000000000000E0
:10002000000000000000000000000000532C000849
:100030000000000000000000512C0008552C0008B2
:10004000E3000008E3000008E3000008E300000804
:10005000E3000008E3000008E3000008E3000008F4
:10006000E3000008E3000008E3000008E3000008E4
:10007000E3000008E3000008E3000008C12C0008CA
:10008000E3000008E3000008E3000008E3000008C4
:10009000E3000008E3000008E3000008E3000008B4
:1000A000E3000008E3000008E3000008E3000008A4
:1000B000E3000008E3000008E30000080348854669
:1000C00000F0DEF8004800473D39000860050020D8
:1000D0000448804704480047FEE7FEE7FEE7FEE7E6
:1000E000FEE7FEE7BD2C0008BD00000830B50B465A
:1000F000014600202022012409E00D46D5409D4202
:1001000005D31D469540491B254695404019154687
:10011000521E002DF1DC30BD70B5002425460028AC
:1001200001DA01244042002901DA01254942FFF7A2
:10013000DDFFAC4200D04042002C00D0494270BDEF
:10014000F0B51FB40646002082B005464024019158
:1001500000901BE0019922460F46304600F07FF8E0
:10016000049A059B801A994110D3104619462246DD
:1001700000F065F8361A8F410197224601200021D0
:10018000009F00F05CF838184D4100902046641E36
:100190000028DFDC019B00982946324607B0F0BDFD
:1001A000F0B51FB486B00020009001900290069830
:1001B000069980B204900798090C020400141143B8
:1001C00007900027089D099806913E463C460390FB
:1001D0000398A9B20204000C039004982D0C154357
:1001E00048430021224600F02AF8C7197141103413
:1001F0000E46402CECDB3846029A00F020F8009ABC
:10020000019B801800905941029801911030029092
:100210004028CCDB00980BB0F0BDD2B201E00270F8
:10022000401C491EFBD270470022F6E710B513466A
:100230000A4604461946FFF7F0FF204610BD10B5E8
:10024000202A04DB0146203A9140002010BD914055
:1002500020239C1A0346E3401943904010BD10B57B
:10026000202A04DB0846203AD040002110BD0B466E
:10027000D340D0402024A21A91400843194610BD13
:10028000064C0125064E05E0E36807CC2B430C3CE9
:1002900098471034B442F7D3FFF714FF6C3A0008C4
:1002A0008C3A000870B50446206802F062FB002812
:1002B0002BD0206802F040FB002807D1206881681D
:1002C000134A11401031816000BF00BF00F0E6FE0C
:1002D000054614E000F0E2FE401B02280FD920681A
:1002E000806804210840002809D0A06D102108432F
:1002F000A065E06D01210843E065012070BD206824
:100300008068042108400028E4D10020F6E70000BE
:10031000E8FFFF7F70B50446206802F00DFB06463B
:10032000206802F00FFB002837D0002E35D120685E
:10033000806805210840012806D1206802F0E6FA0D
:1003400003202168086009E0A06D10210843A06522
:10035000E06D01210843E065012070BD00F09EFEC4
:10036000054614E000F09AFE401B02280FD92068D1
:100370008068C007C00F002809D0A06D1021084375
:10038000A065E06D01210843E0650120E5E72068F4
:100390008068C007C00F0028E4D10020DDE700001E
:1003A00038B5044600200090206802F0CBFA0028FF
:1003B00058D1206880682C490840002809D0A06DD9
:1003C00010210843A065E06D01210843E06501208C
:1003D00038BD206802F0A2FA244802F0A7FA0121F1
:1003E000C905084000280DD0214922480068FFF7C0
:1003F0007DFE401C009002E00098401E0090009896
:100400000028F9D1607E01282CD000F047FE054677
:100410001FE0206802F096FA002802D1206802F05E
:100420007DFA00F03BFE401B022812D920680068CC
:10043000C007C00F012148404840002809D1A06DE5
:1004400010210843A065E06D01210843E06501200B
:10045000BEE720680068C007C00F0121484048403F
:100460000028D6D00020B3E71700008008270140FD
:10047000400D0300180000203EB504460020009007
:10048000019002900094012001900620029069469C
:10049000034800F0D5F8002801D000F01BF83EBD5D
:1004A0001C00002070B504462046FFF7E5FF084811
:1004B00000F082FC7D21C900054800F00FFC0448D3
:1004C00000F070FA0546024800F0AEFC284670BD08
:1004D0001C00002072B600BFFEE70000FEB5044617
:1004E00000200190002600BF5420005D012801D1AA
:1004F0000220FEBD01215420015500BF2046FFF718
:1005000009FF0290206802F025FA002873D1A06D3F
:10051000FF210131884302210843A0652068C0689B
:100520004449084000902068C068C94308402168D9
:10053000C860002528E0206881683F4A1140120702
:100540008918816000BF13E00198401C01903B496D
:10055000019888420CD3A06D0221884310210843E2
:10056000A06500BF00215420015500BF0120C0E755
:1005700020688168C90F0029E6D12068B421095894
:100580004906490E8E196D1C082DD4D329463046D4
:10059000FFF7ACFD064620688168274A1140491CD8
:1005A000816000BF31462068B4221258D209D201BE
:1005B0000A43B4231A5000BF206881681E4A1140C4
:1005C000891C816000BF00F069FD074614E000F05F
:1005D00065FDC01B02280FD9206802F0BBF9002876
:1005E0000AD0A06D10210843A065E06D01210843E9
:1005F000E06501207DE711E0206802F0ABF90028FA
:10060000E5D12068C068009908432168C860A06DE2
:100610000221884301210843A06503E0A06D102159
:100620000843A06500BF00215420015500BF029877
:100630005FE7000003800000E8FFFF7F00F2020098
:10064000F0B585B005460C460020039002900121CC
:10065000C9072869884203D0091D2869884200D14A
:1006600000E000BF00BF5420405D012802D10220FD
:1006700005B0F0BD01215420415500BF286802F0AB
:1006800078F9002876D16068022874D00121C90762
:100690002869884203D0091D2869884208D1286842
:1006A0002168826A4B035B0B1A43826200BFC6E07B
:1006B0002179CA06D20E0F219140286E8843216805
:1006C0004903490B002905D11F22920621681140D8
:1006D000890E92E02178C907C90F002901D00021B5
:1006E0008BE0022221681140022901D1012184E01E
:1006F000042221681140042901D102217DE0082251
:1007000021681140082901D1032176E010222168D7
:100710001140102901D104216FE0202221681140ED
:10072000202901D1052168E040222168114040299B
:1007300001D1062161E0802221681140802901D188
:1007400007215AE0FF22013221681140914201D174
:10075000082152E00122520221681140914201D148
:1007600009214AE00122920221681140914203D1FD
:100770000A2142E0FAE0BAE00122D20221681140E7
:10078000914201D10B2138E001221203216811406E
:10079000914201D10C2130E0012252032168114025
:1007A000914201D10D2128E00122920321681140DC
:1007B000914201D10E2120E00122D2032168114093
:1007C000914201D10F2118E0012212042168114049
:1007D000914201D1102110E0012252042168114000
:1007E000914201D1112108E00122920421681140B7
:1007F000914201D1122100E000212279D206D20ECD
:1008000091400843286660688008401CE969884276
:1008100015D82868226861680192836ACF06FF0EA6
:100820000F22BA4093430F27BF06019A3A40920E17
:10083000CF06FF0EBA401343836200BF00BF286893
:1008400021680091A16801914269009909028A43D7
:1008500000990B024C4F019939400B401A434261F9
:1008600000BF2068C00FC007002821D0474802F011
:100870005DF806464649206888421AD1C0023040D9
:10088000002816D1C80230430146404802F08AF8D9
:10089000404941480068FFF729FC401C0C214843AF
:1008A000029002E00298401E029002980028F9D1BE
:1008B00062E03A49206888420AD18002304000282C
:1008C00006D1880230430146304802F06BF853E00D
:1008D0003349206888424FD14002304000284BD134
:1008E000480230430146294802F05CF844E0012107
:1008F000C9072869884203D0091D2869884208D1A0
:1009000028682168826A4B035B0B9A43826200BFAE
:1009100000BF2068C00FC00700282DD01B4802F080
:1009200005F806461A492068884207D1C2023046B7
:1009300090430146154802F035F81DE0174920683C
:10094000884207D182023046904301460F4802F0A8
:1009500029F811E01249206888420DD14202304640
:1009600090430146094802F01DF805E0A86D2021DA
:100970000843A8650120039000BF00215420415581
:1009800000BF039874E6000000FFFF07082701403E
:10099000001000B0400D030018000020004000B817
:1009A000002000B401460868006C7047FEB504469C
:1009B00000200290002500260190002C01D101208A
:1009C000FEBD3C20005D012800D100BF2069002849
:1009D00005D0012149052069884200D100BFA06DE2
:1009E000002807D1204600F02DF90020E065002105
:1009F00054200155206801F0B5FF002817D1206868
:100A00008168894A1140012212071143816000BFA9
:100A1000864987480068FFF769FB401C4000019049
:100A200002E00198401E019001980028F9D1206849
:100A300001F098FF002809D1A06D10210843A0659E
:100A4000E06D01210843E06501200290206801F07B
:100A500090FF0746A06D1021084000287ED1002F8E
:100A6000FCD1A06D0901884302210843A0652068DC
:100A700001F068FF002872D1217E8903A068084335
:100A8000617EC9030843A17E49030843216B002905
:100A900002D00121090300E000210843E168084376
:100AA0002169C90FC907002903D0216949004908F4
:100AB00001E00121490508432C21095D4900084353
:100AC00005432020005D01280ED1A07E002803D11F
:100AD00001200004054307E0A06D20210843A06524
:100AE000E06D01210843E065606A002806D0FF211F
:100AF000C131606A0840A16A084305432068C068A4
:100B00004C49084028432168C8606068800F80070E
:100B1000E16C084306433C20005D01280BD160686E
:100B2000800F800701210843216C0843616C084352
:100B3000A16C08430643206800693F4908403043E0
:100B400021680861032189076068884216D04942FC
:100B50006068884212D04900606801E05BE00DE007
:100B600088420BD0354880680F21890488430F22C2
:100B70009204616811400843304988600021626B2B
:100B8000206801F016FF2E49A26B206801F011FFCA
:100B90002069002807D12068806A0F21C9430843D3
:100BA0002168886211E001214905206988420CD141
:100BB000207F401E4007C10E0F20C0438840216E99
:100BC00008432168896A21688862216800200091B1
:100BD00000994969042202400723934019400422E6
:100BE0000240D140606B814208D10020E065A06DD9
:100BF0000221884301210843A06512E0A06D022173
:100C0000884310210843A065E06D01210843E06599
:100C10000120029005E0A06D10210843A06501208D
:100C200002900298CCE60000E8FFFF7F400D030031
:100C3000180000200102FEFF02FCFF1F00270140F8
:100C400004FFFF0710B594B0044614210FA8FFF766
:100C5000EBFA342102A8FFF7E7FA1E492068884220
:100C600035D101208003029000200A9002A800F0F4
:100C7000DBFA002801D0FFF72DFC00BF1648006802
:100C8000012109050843144908600846006801214C
:100C900009050840019000BF00BF00BF0E48403862
:100CA000406B012108430C49403948630846406BBA
:100CB000C007C00F019000BF00BF03200F9010902D
:100CC000002011900FA90520000700F0EBF814B0E8
:100CD00010BD00000024014040100240F8B5044659
:100CE0000D466069082801D108260CE02068C0681C
:100CF000C007C00F002805D0A06D20210843A065C3
:100D00000120F8BD042600F0C9F9074619E0681C67
:100D1000002816D000F0C2F9C01BA84201D8002D4F
:100D20000FD120680068304000280AD1A06D04214E
:100D30000843A06500BF00215420015500BF0320D7
:100D4000DFE72068006830400028E0D0A06D012176
:100D500049020843A065206801F011FE002823D055
:100D6000A07E002820D120680068082108400828BB
:100D70001AD1206801F0FDFD00280DD120684068DF
:100D80000C21884321684860A06DFF210131884310
:100D900001210843A06507E0A06D20210843A0655C
:100DA000E06D01210843E065207E002802D10C207F
:100DB000216808600020A4E770B50446206801F0AF
:100DC000D8FD00282AD100BF5420005D012801D1A0
:100DD000022070BD01215420015500BF2046FFF7BD
:100DE000DFFA0546002D14D1A06D0E490840FF2101
:100DF00001310843A0650020E0651C2021680860DF
:100E000000BF00215420015500BF206801F0C2FD41
:100E100005E000BF00215420015500E002252846CE
:100E2000D7E70000FEF1FFFF70B5044600BF542075
:100E3000005D012801D1022070BD0121542001551F
:100E400000BF2046FFF72EFA0546002D0CD12046A4
:100E5000FFF760FA0546002D06D1A06DFF21013194
:100E6000884301210843A06500BF0021542001559B
:100E700000BF2846E0E7000070B5044600F00EF918
:100E800006462546681C002802D0054800782D1823
:100E900000BF00F003F9801BA842FAD370BD000028
:100EA0001400002070B503460A460021D7E0012651
:100EB0008E4014683440002C73D01579AD07AD0F07
:100EC000012D04D01579AD07AD0F022D18D198680A
:100ED0004E000325B5400646AE4330464E00D56869
:100EE000B54028439860586801258D400646AE43BA
:100EF00030461026556835402D098D4028435860EE
:100F00001579AD07AD0F032D0BD0D8684E00032522
:100F1000B5400646AE4330464E009568B54028437E
:100F2000D8601579AD07AD0F022D15D1CD08AE00F3
:100F30001D462035A8594D07EE0E0F25B540064633
:100F4000AE4330464E07F60E1569B5402843CD082E
:100F5000AD001E462036705118684E000325B5407E
:100F60000646AE4330461579AD07AD0F4E00B5408D
:100F7000284318600326360455683540002D6DD08F
:100F80003A4D8E08B600A8598D07EE0E0F25B540D4
:100F90000646AE43304605252D07AB4202D100255B
:100FA00010E05BE0324DAB4201D101250AE0314D4A
:100FB000AB4201D1022505E02F4DAB4201D1032503
:100FC00000E005258E07F60EB5402843274D8E0814
:100FD000B600A851254D603D28680546A543284622
:100FE0000126360555683540002D02D005462543BB
:100FF00028461E4D603D286068680546A543284682
:101000000126760555683540002D02D0054625435A
:101010002846164D603D6860144D203568680546C9
:10102000A54328460126760455683540002D02D098
:101030000546254328460D4D20356860286805463D
:10104000A54328460126360455683540002D02D0B8
:10105000054625432846054D20352860491C15685E
:10106000CD40002D00D022E770BD00006018024086
:101070000004005000080050000C005010B54269F8
:1010800013460B401B040C4694432343836110BD5D
:10109000002A01D0816100E0816270470148006848
:1010A000704700000C0000200348006803490978DD
:1010B00040180149086070470C000020140000200F
:1010C00010B5002408480068FF2101310843064993
:1010D0000860002000F00AF8002801D0012401E097
:1010E00000F034F8204610BD00200240F8B5044658
:1010F00000251348007800281ED0114801787D2073
:10110000C000FEF7F3FF074639460E480068FEF7B9
:10111000EDFF064600F062FE00280BD1042C07D23A
:1011200000222146401E00F049F80748046004E010
:10113000012502E0012500E001252846F8BD000058
:1011400014000020180000201000002008B500BF87
:1011500010480068012108430E49086008460068ED
:10116000C007C00F009000BF00BF00BF0948403853
:10117000C06B8905084307494039C8630846C06BFE
:1011800009040840009000BF00BF0320400200F0A7
:1011900019FE08BD401002400146002909DB00BFCE
:1011A00000BFCB06DB0E01229A40034B1A6000BF42
:1011B00000BF00BF7047000000E100E070B50446CA
:1011C0000D4616462946204602F026FB70BD00005B
:1011D00070B5044611480068032149028843204342
:1011E0000E4908604815844216D10D490968062247
:1011F000514308460B49FEF779FF451C05E0002DD9
:1012000001D06D1E01E0032070BD0448406901213A
:10121000890208408842F2D00020F5E700700040C3
:101220001800002040420F00FEB5044600270020B1
:101230000290012149042068084088427BD10020A7
:101240000190B348C06BC902084000280ED100BF0E
:10125000AF48C06B0843AE49C8630846C06B090479
:101260000840009000BF00BF01200190A94800681D
:10127000FF2101310843A7490860FFF70FFF064629
:1012800006E0FFF70BFF801B022801D9032706E0C9
:10129000A0480068FF21013108400028F1D000BFBC
:1012A000002F4BD19A484030C569032109020D40F7
:1012B000002D1AD0206BA84217D095484030C06945
:1012C0008843054692484030C0690121090408431B
:1012D0008F494031C8610846C0690121090488432B
:1012E0008B494031C8610846C561E807C00F002836
:1012F00013D0FFF7D3FE064607E0FFF7CFFE801BB3
:101300008549884201D9032706E081484030C069F9
:10131000022108400028F0D000BF002F0CD17C48EB
:101320004030C069032109028843216B0843784992
:101330004031C86103E00DE0029700E00297019898
:10134000012806D17248C06B012109078843704902
:10135000C86300BF2078C007C00F002809D06C48C0
:101360004030406980088000616808436849403126
:101370004861022120680840022809D164484030B1
:1013800040690C218843A1680843614940314861A4
:1013900010212068084010280AD15D48403040697B
:1013A000032189028843E168084359494031486173
:1013B000012149022068084088420AD1544840303F
:1013C0004069032189048843A16908435049403199
:1013D0004861012189022068084088420AD14C48AE
:1013E00040304069032109058843E16908434849C1
:1013F0004031486120212068084020280AD1444813
:10140000403040690321090388432169084340496A
:10141000403148610121890320680840884213D186
:101420003B484030406980008008216A08433849C1
:10143000403148610906206A884205D13448C068B5
:10144000891308433249C8600121C9042068084053
:10145000884209D12E484030406940218843616A62
:1014600008432B4940314861012149052068084063
:10147000884214D126484030406949008843A16A17
:10148000084323494031486101218905A06A884207
:1014900005D11F48C068890008431D49C860012163
:1014A000890520680840884213D1194840304069B6
:1014B00089008843E16A08431549403148610121A8
:1014C0000906E06A884204D11148C06808431049FF
:1014D000C8600121C90220680840884215D10C4823
:1014E0004030406903218903884361690843084902
:1014F00040314861012189036069884205D104486F
:10150000C068890008430249C8600298FEBD000017
:1015100000100240007000408813000070B50446BF
:101520000D46002C01D1012070BD6B4800684007BA
:10153000400FA84218D268480068C008C00028437D
:1015400065490860FFF7AAFD064607E0FFF7A6FD1C
:10155000801B6249884201D90320E5E75E480068A4
:101560004007400FA842F1D102212068084002281C
:1015700015D1042120680840042807D15848806804
:1015800007210903884340185549886054488068FA
:101590000F2109028843A1680843514988602078D7
:1015A000C007C00F002854D06068012808D14C48FB
:1015B000006801214904084000282ED10120B3E72A
:1015C0006068022808D146480068012149060840A1
:1015D000002822D10120A7E76068002808D14048F0
:1015E0000068012189020840002816D101209BE7EC
:1015F0006068032808D13A484030006A0221084058
:1016000000280AD101208FE735484030C069022107
:101610000840002801D1012086E731488068C008D1
:10162000C000616808432E498860FFF737FD064611
:1016300007E0FFF733FD801B2849884201D90320CA
:1016400072E727488068382108406168C9008842ED
:10165000EFD1214800684007400FA84218D91E4822
:101660000068C008C00028431B490860FFF716FD4A
:10167000064607E0FFF712FD801B1849884201D992
:10168000032051E7144800684007400FA842F1D1F9
:10169000042120680840042808D1114880680721E7
:1016A00009038843E16808430D49886000F03AF86F
:1016B0000B4989680F2212021140090A8900094A60
:1016C000515CC906C90EC840074908600748006850
:1016D000FFF70CFD28E700000020024088130000FF
:1016E000001002400C3A00081800002010000020F2
:1016F00001480068704700001800002000B5FFF79F
:10170000F7FF06498968072212031140090B890077
:10171000034A515CC906C90EC84000BD0010024012
:101720004C3A0008FEB5354880683821084000284A
:101730000DD13248006809020840C10A01208840E2
:1017400000902F480099FEF7D1FC044654E02B4846
:10175000806838210840082801D12A4C4CE02748ED
:10176000806838210840102834D12448C068860792
:10177000B60F2248C068702108400009401C019043
:10178000022E0FD0032E0CD11E480199FEF7AEFC9D
:101790001A49C9687F2212021140090A48430546C6
:1017A0000DE000BF16480199FEF7A0FC1349C96877
:1017B0007F2212021140090A4843054600BF00BFBC
:1017C0000E48C068400F471C39462846FEF78EFC7D
:1017D000044611E00948806838210840202801D1DA
:1017E000840209E00548806838210840182802D1A1
:1017F0007D24240200E000242046FEBD00100240AB
:101800000024F40000127A00FEB50446002C01D139
:101810000120FEBD2078C007C00F00286FD0F74818
:10182000876838210F40C0688607B60F102F01D196
:10183000032E01D0082F0BD1F04800680121490484
:10184000084000285BD06068002858D10120E0E7FC
:1018500000BF012109046068884205D1E74800689B
:101860000843E649086021E00521090460688842D0
:101870000ED1E2480068012189040843DF4908606D
:1018800008460068012109040843DC4908600DE0AE
:10189000DA480068012109048843D84908600846ED
:1018A0000068012189048843D449086000BF60684A
:1018B000002812D0FFF7F2FB054606E0FFF7EEFB2B
:1018C000401B642801D90320A3E7CC48006801210C
:1018D000490408400028F1D011E0FFF7DFFB05467E
:1018E00006E0FFF7DBFB401B642801D9032090E7EB
:1018F000C24800680121490408400028F1D10221B2
:1019000020680840022873D1BC488068382108400C
:101910000746BA48C0688607B60F102F01D1022EBD
:1019200001D0002F36D1B548006801218902084056
:10193000002804D0E068002801D1012069E7AF4801
:1019400040687F2109028843616909020843AB4965
:101950004860002F16D1084600680721C902884355
:1019600021690843A5490860084600680722D20299
:101970001040C20A012090400146A148FEF7B6FB84
:10198000A0490860A0480068FFF7B0FB002849D0D4
:1019900001203EE7E06800282BD098480068072126
:1019A000C9028843216908439449086008460068D1
:1019B0008915084391490860FFF770FB054606E06A
:1019C000FFF76CFB401B022801D9032021E78B485D
:1019D00000680121890208400028F1D0874840684A
:1019E0007F210902884361690902084383494860ED
:1019F00018E082480068FF21013188437F49086070
:101A0000FFF74CFB054606E0FFF748FB401B0228AA
:101A100001D90320FDE679480068012189020840C8
:101A20000028F1D1082120680840082849D17348CE
:101A300080683821084018280BD170484030006A6F
:101A40000221084000283CD0A069002839D101209B
:101A5000DFE6A06900281AD068484030006A0121FA
:101A60000843664940310862FFF718FB054606E067
:101A7000FFF714FB401B022801D90320C9E65F4889
:101A80004030006A022108400028F1D019E05B488C
:101A90004030006A40084000584940310862FFF772
:101AA000FDFA054606E0FFF7F9FA401B022801D9C6
:101AB0000320AEE651484030006A02210840002869
:101AC000F1D104212068084004287CD10020019035
:101AD0004A4880683821084020280BD147484030C8
:101AE000C0690221084000286ED0A06800286BD190
:101AF00001208EE64148C06B010F01208843002879
:101B000010D000BF3D48C06B0121090708433B4985
:101B1000C8630846C06B09040840009000BF00BFBE
:101B20000120019039480068FF2101310840002858
:101B300016D136480068084334490860FFF7AEFA0A
:101B4000054606E0FFF7AAFA401B022801D9032048
:101B50005FE62E480068FF21013108400028F1D0DF
:101B600000BFA068012808D124484030C069012185
:101B7000084322494031C86120E0A06805280FD100
:101B80001E484030C069042108431C494031C861E7
:101B90000846C0690121084318494031C8610DE079
:101BA00016484030C0694108490014484030C161BE
:101BB000C0690421884311494031C86100BFA06851
:101BC000002816D001E040E03EE0FFF767FA054646
:101BD00007E0FFF763FA401B0D49884201D9032053
:101BE00017E606484030C069022108400028F0D0BE
:101BF0001EE0FFF753FA054614E000000010024013
:101C00000024F400180000201000002000700040A4
:101C100088130000FFF742FA401B6649884201D949
:101C20000320F6E56448C069022108400028F1D18C
:101C30000198012808D160484038C06B012109078C
:101C400088435D494039C86300BFE06900285CD023
:101C50005948403880683821084010287CD0E06915
:101C6000022853D1544840380068012109068843AE
:101C7000514940390860FFF711FA054606E0FFF7C1
:101C80000DFA401B022801D90320C2E54A4840381A
:101C900000680121490608400028F0D1616A206AE5
:101CA0000843A16A09020843E16A0843216B08431B
:101CB000616B084340494039C968404A11400843B4
:101CC0003D494039C86008460068012109060843BB
:101CD0003949403908600846C06809040843364954
:101CE0004039C860FFF7DAF9054606E0FFF7D6F994
:101CF000401B022801D903208BE52F48403800689B
:101D00000121490608400028F0D050E02A48403818
:101D10000068012109068843274940390860FFF718
:101D2000BDF9054606E0FFF7B9F9401B022801D9C5
:101D300003206EE52048403800680121490608402C
:101D40000028F0D11C484038C0681D4908401A4995
:101D50004039C8602BE0FFE7E069012800D158E571
:101D600015484038C668B107890F206A81421CD1E6
:101D700070203040616A884217D17F2000023040D5
:101D8000A16A0902884210D11F2040043040E16A54
:101D900088420AD1072040063040216B884204D196
:101DA000710F4907606B814201D0012031E50020AD
:101DB0002FE5000088130000401002408C80C11104
:101DC000FCFFFEEE044909680322520291430143DD
:101DD000014A1160704700000000014070B50446E0
:101DE0002546681E0949884201D901200CE0681E79
:101DF000074948610321081F01F00EFD0020044936
:101E0000886107200861002070BD0000FFFFFF000F
:101E100000E000E0704770477047000030B50246B0
:101E20000B4600BF3C20805C012801D1022030BD60
:101E300001253C20855400BF02253D2085541068B3
:101E40004168106884681B4D1068A84206D10F25B0
:101E50002D050846A84301465868014370250846E9
:101E6000A84301461868014310684160114D10688D
:101E7000A8420CD00125AD071068A84207D00E4D2E
:101E80001068A84203D00D4D1068A84207D18025E4
:101E90002046A843044698680443106884600125DE
:101EA0003D20855400BF00253C20855400BF002004
:101EB000BDE70000002C014000040040004001404C
:101EC00010B50446002C01D1012010BD3D20005D5D
:101ED000002805D100213C200155204600F026F8BD
:101EE00002213D200155211D206800F0F1FE012155
:101EF0004820015500BF3E2001553F20015540209C
:101F0000015541200155422001554320015500BF94
:101F100000BF44200155452001554620015547206A
:101F2000015500BF3D2001550020CEE738B50446DD
:101F3000012189072068884215D100BF0A48C06B7B
:101F4000012108430849C8630846C06BC007C00F99
:101F5000009000BF00BF002211460F20FFF72EF9AE
:101F60000F20FFF719F938BD0010024001463D204F
:101F7000405C012801D00120704702233D204354DA
:101F80000868C068012318430B68D860144B0868C0
:101F900098420CD001239B070868984207D0114B48
:101FA0000868984203D0104B086898420FD108681F
:101FB00082680E4B1A40062A0FD0D81F82420CD0DE
:101FC00008680068012318430B68186005E008687A
:101FD0000068012318430B6818600020CCE700005C
:101FE000002C0140000400400040014007000100B7
:101FF000F8B504460D460020009000BF3C20005D6F
:10200000012801D10220F8BD01213C20015500BF6B
:1020100002213D200155206886683A480640FF218C
:1020200009023046884306462068866028685028A2
:1020300034D00CDC202851D004DC00284CD01028EF
:1020400052D14AE030284AD040284DD13AE06028A9
:102050002ED0702807D001210903401A02D0401A5F
:1020600042D10DE043E0EB686A68A968206800F09F
:1020700098FE20688668772006432068866036E0F0
:10208000EB686A68A968206800F08BFE20688068A9
:102090000121890308432168886028E0EA686968AB
:1020A000206801F061F85021206800F089FE1EE0F0
:1020B000EA686968206801F070F86021206800F023
:1020C0007FFE14E0EA686968206801F04DF840215D
:1020D000206800F075FE0AE000BF00BF00BF29685D
:1020E000206800F06DFE02E00120009000BF00BFFC
:1020F00001213D20015500BF00213C20015500BFBA
:10210000009880E788FFCEFF7047000010B50446B6
:102110002068006902210840400800281CD020687F
:10212000C06808404008002816D0481F2168086190
:1021300001202077206880698007800F002803D065
:102140002046FFF7E1FF05E0204600F027F9204692
:1021500000F019FA00202077206800690421084067
:10216000800800281DD02068C0680840800800282A
:1021700017D0C84321680861022020772068806951
:10218000032109020840002803D02046FFF7BCFFC6
:1021900005E0204600F002F9204600F0F4F90020A6
:1021A00020772068006908210840C00800281CD05A
:1021B0002068C0680840C008002816D0C8432168BD
:1021C0000861042020772068C0698007800F0028FC
:1021D00003D02046FFF798FF05E0204600F0DEF828
:1021E000204600F0D0F900202077206800691021F7
:1021F0000840000900281DD02068C0680840000978
:10220000002817D0C843216808610820207720687B
:10221000C069032109020840002803D02046FFF7C7
:1022200073FF05E0204600F0B9F8204600F0ABF956
:102230000020207720680069C007C00F01214840B6
:10224000484000280CD02068C068084048404840FA
:10225000002805D0C81E21680861204600F02EFA2B
:102260002068006980210840C00900280BD0206840
:10227000C0680840C009002805D0C843216808612B
:102280002046FFF7C8FD20680069FF2101310840A2
:10229000000A00280CD02068C06880210840C009CE
:1022A000002805D01648216808612046FFF7B2FDD6
:1022B0002068006940210840800900280BD0206870
:1022C000C06808408009002805D0C843216808611B
:1022D000204600F0FFF920680069202108404009ED
:1022E00000280BD02068C06808404009002805D0AD
:1022F000C843216808612046FFF78EFD10BD00002D
:10230000FFFEFFFF10B586B00446142101A8FDF7BB
:102310008BFF012189072068884236D100BF1C4805
:10232000406B042108431A4948630846406B042166
:102330000840009000BF00BF00BF1548406B02215D
:102340000843134948630846406B02210840009047
:1023500000BF00BF302001900220029000200390B7
:1023600004900220059001A90A48FEF79BFD032076
:10237000800201900220029000200390049002202D
:10238000059001A90448FEF78DFD06B010BD0000C0
:102390000010024000080050000400507047F8B5DB
:1023A00004460D461646002700BF3C20005D01286C
:1023B00001D10220F8BD01213C20015500BF0C2EA7
:1023C00054D006DC002E09D0042E1ED0082E7ED15B
:1023D00035E0102E64D0142EF9D179E0294620681A
:1023E00000F0FAFC206880690821084321688861B0
:1023F0002068806904218843216888612068806999
:1024000029690843216888617EE02946206800F038
:102410003BFD206880690121C90208432168886169
:1024200020688069012189028843216888612068C9
:1024300080692969090208432168886164E02946A6
:10244000206800F081FD2068C069082108432168E8
:10245000C8612068C069042188432168C861206878
:10246000C069296908432168C8614DE02946206890
:1024700000F0C8FD2068C0690121C9020843216835
:10248000C8612068C0690121890288432168C86148
:102490002068C0692969090208432168C86133E0DE
:1024A0002946206800F0EEFD2068406D08210843B1
:1024B000216848652068406D04218843216848658B
:1024C0002068406D29690843216848651CE019E0CF
:1024D0002946206800F00EFE2068406D0121C902E7
:1024E0000843216848652068406D012189028843BE
:1024F000216848652068406D296909020843216800
:10250000486501E0012700BF00BF00BF00213C205B
:10251000015500BF38464DE710B50446002C01D1E7
:10252000012010BD3D20005D002805D100213C2088
:102530000155204600F026F802213D200155211DBD
:10254000206800F0C5FB01214820015500BF3E2056
:1025500001553F20015540200155412001554220A1
:1025600001554320015500BF00BF442001554520BF
:102570000155462001554720015500BF3D2001551A
:102580000020CEE77047704770B504460D46002D19
:1025900002D13E20005D15E0042D02D13F20005DF8
:1025A00010E0082D02D14020005D0BE00C2D02D17F
:1025B0004120005D06E0102D02D14220005D01E0C7
:1025C0004320005D012801D0012070BD002D03D102
:1025D00002213E2001551AE0042D03D102213F20A3
:1025E000015514E0082D03D10221402001550EE0D1
:1025F0000C2D03D102214120015508E0102D03D1FB
:1026000002214220015502E002214320015501220E
:102610002946206800F0B4FB2249206888420BD08C
:1026200021492068884207D020492068884203D089
:102630001F492068884201D1012000E000200028C5
:1026400006D02068406C0121C90308432168486412
:102650001449206888420CD00121890720688842EB
:1026600007D014492068884203D00F492068884267
:102670000FD12068866810490E40062E0FD0C81F63
:1026800086420CD020680068012108432168086058
:1026900005E02068006801210843216808600020E7
:1026A00093E70000002C014000400140004401403D
:1026B00000480140000400400700010010B5044636
:1026C00003480068401C0249086001F061F910BD30
:1026D000080000207047014600BF8020405C0128B0
:1026E00001D10220704701238020435400BF2423DE
:1026F0008420435008680268086800684008400069
:102700000B68186001235B071046984302460020BF
:1027100048660868026020238420435000BF0023DD
:102720008020435400BF0020DCE770B504460D460E
:1027300000BF8020005D012801D1022070BD012171
:102740008020015500BF24218420015120680668A3
:1027500020680068400840002168086020688068A0
:10276000072149068843284321688860204600F0F5
:102770002DFD2068066020218420015100BF00212A
:102780008020015500BF0020D8E770B504460D46F3
:1027900000BF8020005D012801D1022070BD012111
:1027A0008020015500BF2421842001512068066843
:1027B0002068006840084000216808602068806840
:1027C000C000C008284321688860204600F0FEFC55
:1027D0002068066020218420015100BF0021802054
:1027E000015500BF0020D9E710B50446002C01D1E7
:1027F000012010BDA069002800D000E000BF8420A7
:102800000059002805D1002180200155204600F004
:102810002DF82421842001512068006840084000E0
:1028200021680860204600F0B9FD012800D1E0E7EA
:10283000A06A002802D0204600F0FCFC2068406816
:102840000921C902884321684860206880682A21DC
:102850008843216888602068006801210843216856
:102860000860204600F05EFDC3E7000010B594B09C
:10287000044614210FA8FDF7D7FC342102A8FDF768
:10288000D3FC1F492068884237D1022002900020E3
:10289000049002A8FEF7C8FC002801D0FDF71AFE3C
:1028A00000BF1848C06B0121490408431549C8639B
:1028B0000846C06B012149040840019000BF00BFD9
:1028C00000BF1048406B012108430E494863084689
:1028D000406BC007C00F019000BF00BF0C200F90DD
:1028E00002201090012011900020129001201390DE
:1028F0000FA905200007FEF7D5FA14B010BD00009F
:10290000004400400010024000BFFEE78168024A18
:102910001140891C81607047E8FFFF7F8168024A8F
:102920001140491C81607047E8FFFF7F014608683D
:102930000722920510407047014688680222104025
:102940004008704701468868C007C00F0122504008
:102950005040704701468868C007C00F01225040B0
:102960005040704701468868012212071040000F4E
:10297000704701468868042210408008704701466D
:10298000C868032292021040002801D1012070473C
:102990000020FCE78168024A1140091D81607047F0
:1029A000E8FFFF7F026807239B059A430A43026002
:1029B000704730B5436904240D4625400724AC40D8
:1029C000A34304240C401546A5402B43436130BD6E
:1029D0000EB5002000900190029019481949086036
:1029E00000054860002117488160C1600161042131
:1029F000416100210176417681760121C16100218A
:102A00004162816224300172243801634163816331
:102A1000243001762438C164FDF7C8FF002801D0B6
:102A2000FDF758FD012000900020019002906946BA
:102A30000448FDF705FE002801D0FDF74BFD0EBD53
:102A4000002401401C00002000B587B0142102A81A
:102A5000FDF7EAFB00BF2648406B042108432449E8
:102A600048630846406B04210840019000BF00BF46
:102A700000BF1F48406B202108431D49486308469A
:102A8000406B20210840019000BF00BF00BF1848E4
:102A9000406B01210843164948630846406BC00754
:102AA000C00F019000BF00BF00BF0846406B02216D
:102AB00008430F4948630846406B022108400190D3
:102AC00000BF00BF0022202105200007FEF7E0FA2A
:102AD0002020029001200390002004900220059005
:102AE00002A905200007FEF7DDF907B000BD0000D0
:102AF0000010024000B58FB000200B900C900D909C
:102B00000E90089009900A901C2101A8FDF78CFBFB
:102B1000012080072E4908600F20486000212C48C2
:102B200081602C49C160002101618161FFF7C8F912
:102B3000002801D0FDF7CEFC012000030B900BA96B
:102B40002348FFF755FA002801D0FDF7C3FC2048C1
:102B5000FFF7E2FC002801D0FDF7BCFC0020089044
:102B60000A9008A91A48FFF759F9002801D0FDF783
:102B7000B1FC60200190002002900390059000229B
:102B800001A91348FFF70BFC002801D0FDF7A2FCB8
:102B9000042201A90E48FFF702FC002801D0FDF72E
:102BA00099FC082201A90A48FFF7F9FB002801D087
:102BB000FDF790FC0C2201A90548FFF7F0FB002867
:102BC00001D0FDF787FC0248FFF79CFB0FB000BD6A
:102BD00080000020E703000010B51A481A49086079
:102BE000E12040024860002117488160C160016116
:102BF0000C21416100218161C161016241620020BB
:102C0000114988620846FFF7EFFD002801D0FDF763
:102C100061FC00210C48FFF7B8FD002801D0FDF74A
:102C200059FC00210848FFF780FD002801D0FDF77E
:102C300051FC0548FFF74FFD002801D0FDF74AFC85
:102C400010BD000000440040CC00002000BFFEE7A3
:102C50007047704710B5FEF727FA10BD00B593B066
:102C6000382105A8FDF7E0FA0020019002900390BA
:102C7000049001204002FEF7ABFA02200590C0014B
:102C800008900020099040200A9000200C9005A890
:102C9000FEF7BAFD002801D0FDF71CFC07200190CB
:102CA0000020029003900490002101A8FEF736FC5A
:102CB000002801D0FDF70EFC13B000BD70470000E6
:102CC00010B50248FFF722FA10BD00008000002076
:102CD00010B50268244B984206D001239B07984206
:102CE00002D0224B984205D170241346A3431A46C2
:102CF0004B681A431C4B984212D001239B07984201
:102D00000ED01A4B98420BD0194B984208D0194B51
:102D1000984205D0184B984202D0184B984206D1E1
:102D2000032424021346A3431A46CB681A43802483
:102D30001346A3434C6923431A4602608B68C3625F
:102D40000B688362084B984208D00A4B984205D022
:102D5000094B984202D0094B984201D10B69036399
:102D60000123436110BD0000002C0140000400401D
:102D70000020004000400140004401400048014064
:102D800070B5CD06ED0E0124AC402346046A9C4389
:102D90000462046ACE06F60E1546B5402C43046262
:102DA00070BD70B50C468168FF2636020D46B543EE
:102DB00029461D02154325432943816070BD00004B
:102DC0000A468168034B1940072313431943816066
:102DD000704700008FFFCFFF70B5056A6D086D006A
:102DE0000562026A43688469224D2C40A408A4004D
:102DF0000D682C4302261546B5432A468D682A43A2
:102E00001D4DA84200D10BE01C4DA84200D107E0A7
:102E10001B4DA84200D103E01A4DA8420AD100BFC1
:102E200008261546B5432A46CD682A43042615468A
:102E3000B5432A46104DA84208D0104DA84205D0EF
:102E40000F4DA84202D00F4DA8420CD1FF260136EB
:102E50001D46B5432B4676001D46B5432B464D69AE
:102E60002B438D692B43436084614D684563026247
:102E700070BD00008FFFFEFF002C014000400140AC
:102E8000004401400048014070B5056A1026B54372
:102E90000562026A43688469264D2C400326360287
:102EA0002546B5432C460D682D022C432026154699
:102EB000B5432A468D682D012A431F4DA84200D1F3
:102EC0000BE01E4DA84200D100BF1D4DA84200D10D
:102ED00000BF1C4DA8420BD10AE080261546B54321
:102EE0002A46CD682D012A4340261546B5432A4679
:102EF000114DA84208D0114DA84205D0104DA8424E
:102F000002D0104DA8420ED10126B6021D46B5438F
:102F10002B4676001D46B5432B464D69AD002B432D
:102F20008D69AD002B43436084614D688563026207
:102F300070BD0000FF8FFFFE002C014000400140EB
:102F4000004401400048014070B5056AFF26013683
:102F5000B5430562026A4368C469254D2C40A40844
:102F6000A4000D682C4376001546B5432A468D68AB
:102F70002D022A431F4DA84200D10BE01E4DA8424E
:102F800000D100BF1D4DA84200D100BF1C4DA8427A
:102F90000CD10BE00126F6021546B5432A46CD6852
:102FA0002D022A4376101546B5432A46114DA842F4
:102FB00008D0114DA84205D0104DA84202D0104DA6
:102FC000A8420ED1012636031D46B5432B46760096
:102FD0001D46B5432B464D692D012B438D692D01AF
:102FE0002B434360C4614D68C563026270BD00003D
:102FF0008FFFFEFF002C01400040014000440140D3
:103000000048014070B5056A01263603B5430562E4
:10301000036A4468C269164D2A40032636021546E3
:10302000B5432A460D682D022A43012676031D4624
:10303000B5432B468D682D032B430E4DA84208D077
:103040000D4DA84205D00D4DA84202D00C4DA8420E
:1030500007D10126B6032546B5432C464D69AD017F
:103060002C434460C2614D680564036270BD00007A
:10307000FF8FFFFE002C0140004001400044014052
:103080000048014070B5056A01263604B543056263
:10309000036A4468426D124D2A400D682A43760047
:1030A0001D46B5432B460D892D042B430D4DA842DB
:1030B00008D00D4DA84205D00C4DA84202D00C4DB1
:1030C000A84207D1012636042546B5432C464D6952
:1030D0002D022C43446042654D688565036270BDD6
:1030E0008FFFFEFF002C01400040014000440140E2
:1030F0000048014070B5056A01263605B5430562F2
:10310000036A4468426D134D2A400D682D022A431C
:1031100076001D46B5432B460D892D052B430E4DDC
:10312000A84208D00D4DA84205D00D4DA84202D0AE
:103130000C4DA84207D10126B6042546B5432C46BE
:103140004D69AD022C43446042654D68C56503621C
:1031500070BD0000FF8FFFFE002C014000400140C9
:10316000004401400048014070B50B461446026A15
:10317000056A6D086D0005628169F0260D46B5434C
:103180002946250129430A261546B5432A461546F0
:103190001D432A468161026270BD70B50B4614461C
:1031A000056A1026B54305628169026A0F26360357
:1031B0000D46B543294625032943A0261546B543A8
:1031C0002A461D012A438161026270BDF8B504469A
:1031D000606E002805D101216A2001536820015347
:1031E00022E008270822009220688068072149060B
:1031F0000840450E20688068460F0C4A915D0C4AD5
:10320000935D009A53431846FCF786FF81B26A200B
:103210000153064A515D064A525D7A431046FCF757
:103220007BFF81B268200153F8BD0000FB39000824
:10323000F3390008018DC907C90F002908D00168BA
:103240004968012252049143C26A114302685160E5
:103250000222816A1140022907D101684968D2031C
:103260009143026B1143026851600422816A11404C
:10327000042907D10168496812049143426B114344
:10328000026851600822816A1140082907D101684B
:10329000496812039143826B114302685160102206
:1032A000816A1140102907D101688968120291438F
:1032B000C26B1143026891602022816A114020296B
:1032C00007D10168896812029143026C11430268B8
:1032D00091604022816A1140402915D101684968F6
:1032E00092039143426C114302685160012212051E
:1032F000416C914208D1016849680322520591430B
:10330000826C1143026851608022816A11408029D9
:1033100007D10168496812039143C26C11430268E6
:103320005160704738B5044600218C200151FDF7EB
:10333000B5FE0546206800680821084008280BD122
:1033400015482B46002289040090204600F0D4F94D
:10335000002801D0032038BD2068006804210840FF
:1033600004280BD10C482B4600220905009020466A
:1033700000F0C2F9002801D00320ECE720218420CE
:103380000151882001510020E06600BF002180200B
:10339000015500BF0020DEE7FFFFFF01F0B58DB053
:1033A000044600200590C8492068884200D100E00A
:1033B00000BF2169A068084361690843E1690843C7
:1033C000079020680068C1490840079908432168B0
:1033D000086020684068032109038843E1680843C6
:1033E00021684860A0690790B7492068884203D0E7
:1033F000206A07990843079020688068B44908400C
:1034000007990843216888602068C06A00090001A4
:10341000616A08432168C86200BFAE4920688842DB
:1034200017D1AD4840698007800F002806D00128D9
:1034300008D0022804D0032808D105E0002507E0C1
:10344000022505E0042503E0082501E0102500BF62
:1034500047E0A2492068884217D19F4840690C2163
:103460000840002806D0042808D0082804D00C28DA
:1034700008D105E0002507E0022505E0042503E06A
:10348000082501E0102500BF2BE0954920688842FF
:1034900001D1002525E093492068884201D100250B
:1034A0001FE08949206888421AD18B48406903216E
:1034B00089020840002808D001218902401A08D05A
:1034C000401A04D0401A08D105E0002507E0022583
:1034D00005E0042503E0082501E0102500BF00E019
:1034E000102500BF78492068884263D1002D06D09E
:1034F000022D08D0042D08D0082D0DD109E0FEF7CB
:10350000FDF806460CE0784E0AE0FEF70BF9064699
:1035100006E00126F60303E000260120059000BF27
:1035200000BF002E14D0606A4000704A115A304625
:10353000FCF7DCFD0490606841004118049881426A
:1035400004D8606801030498814202D201200590EA
:10355000AEE0606A40006549085A024600230190C7
:1035600030461946FCF7ECFDFF2301330022099396
:1035700008920A910B901A46089BFCF711FE6268AC
:103580005208002380185941039102906068024656
:1035900001900298FCF7D4FD0746032109028F42EF
:1035A00005D35348874202D82068C76080E00120D5
:1035B00005907DE00121C903E069884241D1002DD9
:1035C00006D0022D08D0042D08D0082D0DD109E019
:1035D000FEF794F806460CE0434E0AE0FEF7A2F828
:1035E000064606E00126F60303E0002601200590CA
:1035F00000BF00BF002E5BD0606A40003B4A115AFA
:103600003046FCF773FD400061684908401803909C
:103610006168FCF76BFD0746102F0FD335488742D2
:103620000CD834480F38384006903807400F0699B8
:103630000843069006982168C86039E0012005908B
:1036400036E0002D06D0022D08D0042D08D0082D1C
:103650000DD109E0FEF752F806460CE0224E0AE0D2
:10366000FEF760F8064606E00126F60303E00026B2
:103670000120059000BF00BF002E19D0606A4000F5
:103680001A4A115A3046FCF731FD61684908401862
:1036900003906168FCF72AFD0746102F06D31548F2
:1036A000874203D8B8B22168C86001E001200590C4
:1036B00001216A20015368200153002020676067C0
:1036C00005980DB0F0BD000000800040F369FFCF09
:1036D000FFF4FF1100380140401002400044004058
:1036E00000480040004C00400024F400D439000899
:1036F000FFFF0F00FFFF0000FFB581B004460D463D
:1037000017460A9E7BE0701C002878D0FDF7C6FCA7
:103710000499401AB04201D8002E2FD100BF00F00A
:10372000B7F80090012000F0C5F820680068FF217C
:10373000A131884321680860009800F0BBF800BF01
:1037400000BF00F0A5F80090012000F0B3F8206859
:1037500080684008400021688860009800F0AAF85E
:1037600000BF2021842001518820015100BF002189
:103770008020015500BF032005B0F0BD206800681F
:103780000421084000283AD02068C0694902084056
:10379000C00A002833D008462168086200BF00F044
:1037A00077F80090012000F085F820680068FF217C
:1037B000A131884321680860009800F07BF800BFC1
:1037C00000BF00F065F80090012000F073F8206859
:1037D00080684008400021688860009800F06AF81E
:1037E00000BF202184200151882001518C200151EB
:1037F00000BF00218020015500BF0320BCE72068E6
:10380000C0692840A84201D1012000E00020B84250
:1038100000D178E70020AFE710B5002819DB1A4A7D
:1038200003231B02D21883089B00D2588307DC0EA7
:10383000FF23A3409A438B071B0E8407E40EA3408B
:103840001A43114B032424021B198408A4001A51A3
:1038500018E00E4A03071B0F083B9B089B00D25839
:103860008307DC0EFF23A3409A438B071B0E8407BC
:10387000E40EA3401A43054B0407240F083CA40898
:10388000A4001A5110BD000000E100E01CED00E0B2
:10389000EFF31080704702E008C8121F08C1002A29
:1038A000FAD170477047002001E001C1121F002AC1
:1038B000FBD1704780F31088704710B50020FCF7EB
:1038C000F1FD80B210BD00000F4A914200D91146AF
:1038D000012806D0022808D003280AD004280FD1D6
:1038E0000BE00122920751630BE0012292079163E2
:1038F00007E001229207D16303E0044A116000E06F
:1039000000BF00BF70470000E70300004000004018
:1039100010B50446FF20F530FDF7AEFA10BD10B526
:10392000202105200007FDF7A9FB10BD10B5FFF70A
:10393000F6FFFF20F530FFF7EBFF10BDFDF7C0FBF2
:10394000FFF78CF9FFF780F8FFF746F9FFF740F82B
:10395000FFF7D0F80C48FCF7C1FD0C48FEF706FB5A
:1039600000210A48FEF710FE04210848FEF70CFE6D
:1039700008210648FEF708FE0C210448FEF704FE65
:1039800001E0FFF7D3FFFCE71C00002080000020CF
:1039900010B5FFF792FF0B4908600B480168012042
:1039A000FFF792FFFF212D310220FFF78DFFFF214E
:1039B000F5310320FFF788FFAF2189000420FFF7CE
:1039C00083FF10BD0000002004000020081C3044CC
:1039D000586C8000010002000400060008000A0084
:1039E0000C0010002000400080000001081C304442
:1039F000586C80010101030701000008040204085B
:103A000001010100081C3044586C800000000000D7
:103A100000000000000000000000000000000000A6
:103A20000000000000000000000000000100000095
:103A30000200000003000000040000000600000077
:103A4000070000000800000009000000000000005E
:103A50000000000000000000000000000100000065
:103A60000200000003000000040000008C3A00087F
:103A7000000000201C00000096380008A83A00084A
:103A80001C00002044050000A638000800000000CB
:103A90000000000000000000000000000400000022
:083AA000010000000024F40005
:04000005080000BD32
:00000001FF
