:020000040800F2
:10000000A8040020D100000829100008590F00089A
:1000100000000000000000000000000000000000E0
:100020000000000000000000000000002D1000088B
:1000300000000000000000002B1000082F10000836
:10004000E3000008E3000008E3000008E300000804
:10005000E3000008E3000008E3000008E3000008F4
:10006000E3000008E3000008E3000008E3000008E4
:10007000E3000008E3000008E3000008E3000008D4
:10008000E3000008E3000008E3000008E3000008C4
:10009000E3000008E3000008E3000008E3000008B4
:1000A000E3000008E3000008E3000008E3000008A4
:1000B000E3000008E3000008E30000080348854669
:1000C00000F08EF800480047E5150008A80400205D
:1000D0000448804704480047FEE7FEE7FEE7FEE7E6
:1000E000FEE7FEE791100008BD00000830B50B46A2
:1000F000014600202022012409E00D46D5409D4202
:1001000005D31D469540491B254695404019154687
:10011000521E002DF1DC30BDF0B51FB406460020A4
:1001200082B005464024019100901BE001992246CF
:100130000F46304600F042F8049A059B801A994118
:1001400010D310461946224600F028F8361A8F417F
:100150000197224601200021009F00F01FF8381867
:100160004D4100902046641E0028DFDC019B009872
:100170002946324607B0F0BDD2B201E00270401C01
:10018000491EFBD270470022F6E710B513460A4617
:1001900004461946FFF7F0FF204610BD10B5202A8F
:1001A00004DB0146203A9140002010BD91402023FD
:1001B0009C1A0346E3401943904010BD10B5202A15
:1001C00004DB0846203AD040002110BD0B46D34046
:1001D000D0402024A21A91400843194610BD0000C7
:1001E000064C0125064E05E0E36807CC2B430C3C8A
:1001F00098471034B442F7D3FFF764FF8416000821
:10020000A416000872B6FEE770B5044600F0CAF8FE
:100210000546601C02D004480078241800F0C2F89B
:10022000401BA042FAD370BD00000020F0B50023AF
:1002300003249AE02A4601259D402A407ED00E796B
:10024000B607B60F012E01D0022E16D186682746BA
:10025000B4465E00B646B7406646BE43B446CF6875
:100260007646B7406646374387604668AE430D79A9
:10027000ED06ED0F9D40354345600D79ED43AD072B
:1002800008D0C5685F002646BE40B5438E68BE40B4
:100290002E43C6600D79AD07AD0F022D0ED1DD08DE
:1002A000AD002D18AC462D6A5E07F60E0F27B7403D
:1002B000BD430F69B7402F4365462F6205685F0055
:1002C0002646BE40B5430E79B607B60FBE402E4354
:1002D00006604D68AD03AD0F46D09E08264DB600B2
:1002E0007519AC462D6E9E07F60E0F27B740BD431D
:1002F00005273F07B84201D100270FE01F4FB84242
:1003000001D101270AE01E4FB84201D1022705E0C2
:100310001C4FB84201D1032700E00527B7402F4307
:10032000154D664637662D684E689543F60200D532
:100330001543114F3D607D68954300E014E04E6821
:10034000B60200D515437D600B4D80356E684F6851
:100350009643BF0300D516436E602E684F689643E0
:10036000FF0300D516432E605B1C0A681546DA4071
:1003700000D05FE7F0BD000000180240000400500C
:1003800000080050000C0050426913460B401B044B
:1003900091430B4383617047002A01D0816170470C
:1003A00081627047014880687047000000000020AB
:1003B0000248816802788918816070470000002037
:1003C00010B50848002401688215114301602046D9
:1003D00000F00AF8002801D0012401E000F028F81C
:1003E000204610BD0020024070B50F4E0024317829
:1003F0000546002915D07D20C000FFF777FE014695
:100400000A480068FFF772FE00F04AFC002808D195
:10041000042D06D200222946401E00F023F8756004
:1004200000E00124204670BD000000200C000020E8
:1004300008B50B48016801221143016000681040B3
:10044000009007484038C26B01040A43C263C06B86
:10045000084000900320400200F018FC08BD000096
:100460004010024010B501F05FF810BD10B50F4C00
:10047000216803225202914301432160C11FFF39C9
:10048000FA390ED10A480621006848430949FFF7A6
:100490002DFE401C02E0002805D0401E6169490580
:1004A000F9D4002010BD032010BD000000700040F2
:1004B0000C00002040420F00FEB5044600680027F3
:1004C000704D714E800355D500200090F06BC00038
:1004D00007D4F16BA8050143F163F16B01400120E2
:1004E00000906A480168821511430160FFF75AFFC6
:1004F000019005E0FFF756FF0199401A022825D820
:1005000062480068C005F5D5E86903210902084082
:100510000FD0216B81420CD0E86903210902EA69FE
:100520008843012109040A43EA61EA698A43EA61CE
:10053000E861C0070FD0FFF735FF019008E0FFF733
:1005400031FF0199411A5248814201D9032709E03C
:10055000E8698007F3D5E869032109028843216B24
:100560000843E8610098002804D0F16B01200007DF
:100570008143F1632078C00705D06869616880080D
:100580008000084368612078800705D568690C21E0
:100590008843A168084368612078C00606D5686969
:1005A000032189028843E168084368612088800547
:1005B00006D56869032189048843A16908436861F5
:1005C0002088400506D56869032109058843E1694B
:1005D000084368612078800606D56869032109030D
:1005E0008843216908436861208840040ED5686902
:1005F000216A80008008084368610121206A890718
:10060000884203D1F06889130843F0602068000332
:1006100005D5686940218843616A0843686120689C
:1006200081021C480BD569698210A36A9143194362
:100630006961A16A914202D1F1680143F1602168C8
:1006400049020AD56969E26A814311436961E16A35
:10065000814202D1F1680143F160208800050FD585
:10066000686903218903884361690843686101213E
:1006700060698903884203D1F06889000843F0600B
:100680003846FEBD4010024000100240007000409D
:100690008813000000000001F8B50F46060043D0A3
:1006A0004D4D28684007400FB84213D22868C00853
:1006B000C00038432860FFF775FE044605E0FFF7E9
:1006C00071FE011B4548814261D828684007400FF0
:1006D000B842F4D13068424C81070DD5400704D5AB
:1006E000A068072109030843A060A0680F21090240
:1006F0008843B1680843A0603078C00732D0706882
:1007000001280AD002280BD000280FD034494031EC
:1007100003280ED0C969890704E02168890301E034
:1007200021688901002906DB0120F8BD21684905FF
:10073000F8E7096AEFE7A168C908C9000143A160A9
:10074000FFF730FE009006E0FFF72CFE0099411AFB
:10075000224881421BD8A068382108407168C9002E
:100760008842F1D128684007400FB84217D91A488B
:100770000168C908C90039430160FFF713FE054647
:1007800007E0FFF70FFE411B1448814201D9032007
:10079000F8BD114800684007400FB842F1D13078E9
:1007A000400706D5A068072109038843F16808437C
:1007B000A06000F031F8A1683C2289091140094A83
:1007C000515CC906C90EC84007490860074800685F
:1007D000FFF70AFEF8BD0000002002408813000069
:1007E00000100240241600080C0000200400002025
:1007F0000648074900688968064A4904490F890084
:10080000515CC906C90EC840704700000C000020AA
:10081000001002406416000810B5204CA068204A61
:100820008006400F16D0A0688006410F50100129A5
:100830000FD0A1688906490F022912D0A06880064E
:10084000400F042823D0A0688006400F032821D041
:10085000002010BD206801218004400F8140104617
:1008600012E0E1688B07E1689B0F4906490F491CBC
:10087000032B00D01046FFF739FCE1684904490E0C
:100880004843E168490F491CFFF730FC10BD0120C7
:10089000C00310BD7D20000210BD0000001002400A
:1008A0000024F400F8B504007ED020783827C00773
:1008B000ED4D002846D0A868E96838408907890FBF
:1008C000102802D008280BD001E0032908D001200D
:1008D0006268000482420AD129680143296015E058
:1008E000286880032ED560680028DDD02AE0052323
:1008F00001211B0489049A422A6802D10A432A6012
:10090000EAE782432A6028688843286060680028F4
:100910000CD0FFF747FD064604E0FFF743FD801BC0
:10092000642873D828688003F7D50BE0FFF73AFDF9
:10093000064604E0FFF736FD801B6428F1D82868DE
:100940008003F7D42078800769D5A868E968384023
:100950008A070721920FC902102802D0002813D05D
:1009600001E0022A10D0E068002846D028688843B9
:100970002169084328602868FF2101310843286065
:10098000FFF710FD06462CE02A68520502D5E26802
:10099000002A89D06A687F231B029A4363691B027D
:1009A0001A436A60002800E08DE00ED12868884371
:1009B000216908432860286801218004400F814094
:1009C000AA48FFF793FBAA490860AA480068FFF706
:1009D0000BFD002877D122E0FFF7E4FC801B022802
:1009E0009FD828684005F7D568687F2109028843A9
:1009F000616909020843686011E02968FF2001303D
:100A000081432960FFF7CEFC064605E098E0FFF73A
:100A1000C9FC801B022884D828684005F7D42078B8
:100A2000954E00072ED5A8688006400F03280AD0EF
:100A3000A0690028306A16D0012108433062FFF710
:100A4000B1FC07460BE0306A80071BD5A06900287F
:100A50009FD017E0FFF7A6FCC01B022870D8306AB1
:100A60008007F7D50EE0400840003062FFF79AFC9F
:100A7000074604E0FFF796FCC01B022860D8306AE6
:100A80008007F7D4207840076CD5A8680027800637
:100A9000400F042818D0E86BC00008D4E96B01208F
:100AA00000070143E963E96B0140012700917348A6
:100AB0000168C90519D40168821511430160FFF767
:100AC00071FC00900DE083E0F06980074AD5A068D2
:100AD00000287DD046E0FFF765FC0099401A022807
:100AE0002ED866480068C005F5D5A168012910D048
:100AF00004200529F16911D049084900F161F16923
:100B00008143F161A068002816D0FFF74BFC0090EC
:100B10000EE0F06901210843F061F3E70143F16160
:100B2000F7E7FFF73FFC0099411A5548814267D823
:100B3000F0698007F5D50EE0FFF734FC009007E080
:100B40005EE0FFF72FFC0099411A4D48814257D8CB
:100B5000F0698007F5D4002F04D0E86B0121090764
:100B60008843E863E06900287BD0A9688906490FBB
:100B700002294FD0012636060228286805D0B04346
:100B80002860FFF70FFC04463CE0B0432860FFF705
:100B900009FC074604E0FFF705FCC01B02282FD81C
:100BA00028688001F7D4616A206AA26A0843E16A72
:100BB000120211430843216B0843616B0843E96843
:100BC000304A11400843E86028683043286000E05C
:100BD00045E0E868012109070843E860FFF7E2FB08
:100BE000044604E0FFF7DEFB001B022808D8286853
:100BF0008001F7D535E0FFF7D5FB001B022801D9AE
:100C00000320F8BD28688001F5D4E8681E49084033
:100C1000E86026E00128F4D0E868226A8107890F9D
:100C200091421CD17021626A0140914217D17F210B
:100C3000A26A090201401202914210D11F21490407
:100C4000E26A014091420AD107214906226B014024
:100C5000914204D1400F616B4007884201D00120CE
:100C6000F8BD0020F8BD0000001002400024F40090
:100C70000C000020040000204010024000700040E2
:100C8000881300008C80C111FCFFFEEE03490A6846
:100C900003235B029A4302430A607047000001404D
:100CA000094910B5401E884201D9012010BD074CEA
:100CB00060610321081F00F037FC0020A0610720BD
:100CC0002061002010BD0000FFFFFF0000E000E0F9
:100CD00010B5014680310A78012A15D001220A7028
:100CE00024224A600268136814686408640014606F
:100CF00001225207934300224266006803602020CD
:100D000048600A70104610BD022010BD70B5044640
:100D100005468034207801281AD001202070242034
:100D200060602868066802685208520002602868FD
:100D3000826807235B069A430A438260284600F0D4
:100D4000A9F928680660202060600020207070BD2E
:100D5000022070BD70B50446054680342078012815
:100D600019D001202070242060602868066802687D
:100D700052085200026028688268D200D2080A43F2
:100D80008260284600F086F92868066020206060AE
:100D90000020207070BD022070BD70B5040005D029
:100DA000254680356868002802D006E0012070BD25
:100DB00000202870204600F027F824206860206872
:100DC0000168490849000160204600F01DFA012829
:100DD000EDD0A06A002802D0204600F07DF92068FE
:100DE00041680922D20291434160206881682A2229
:100DF000914381602068016801221143016020460F
:100E000000F0D0F970BD000030B593B00446142155
:100E10000DA8FFF7B8F934216846FFF7B4F9164971
:100E20002068884225D10224002568460295009456
:100E3000FFF742FB002801D0FFF7E4F90F48C26B2F
:100E4000012149040A43C263C26B0A401292426BF9
:100E500001210A434263406B0F91084012901191A7
:100E60000C2010950DA911C1052000070839FFF7C6
:100E7000DDF913B030BD0000004400400010024016
:100E8000FFB5064604468036706883B00D462028BC
:100E900060D1002D0CD00598002809D00120A16850
:100EA0000003814207D12069002804D1E80702D05D
:100EB000012007B0F0BD307801284BD00120307000
:100EC0000020F06021207060FFF76CFA0190274647
:100ED00040370598B8820598F8820120A168000380
:100EE000814202D12069002804D00295002500200B
:100EF000307015E000200290F9E7002280212046A2
:100F000000F09EFA002818D10298002817D0216816
:100F1000007888620298401C0290F88A401EF8828D
:100F2000F88A019B002806980090E6D10022402113
:100F3000204600F085FA002808D00320B9E7288869
:100F40002168C005C00D8862AD1CE6E720207060F6
:100F50000020AEE70220ACE7FEE7000070B586B0E7
:100F600014216846FFF70FF91448426B04210A4325
:100F70004263426B0A400592416B20242143416346
:100F8000416B21400591416B012529434163406B31
:100F90000526284036070590002221463046FFF7F7
:100FA000FBF900200290022003900195009469460D
:100FB0003046FFF73BF906B070BD0000001002405C
:100FC00010B5184816490160E1214902416000212D
:100FD0008160C16001618161C16101620C22416275
:100FE00042618162FFF7D9FE002801D0FFF70AF9BC
:100FF00000210C48FFF7AEFE002801D0FFF702F9F0
:1010000000210848FFF782FE002801D0FFF7FAF818
:101010000448FFF75DFE002801D0FFF7F3F810BD8C
:101020000044004014000020FEE77047704710B5F0
:10103000FFF7BEF910BD10B592B038216846FFF732
:10104000A2F8002401200E940F94109440021194F1
:10105000FFF70CFA02200090C00103904020059099
:10106000049407946846FFF71DFC002801D072B66F
:10107000FEE707200E900F941094002111940EA803
:10108000FFF70AFB002801D072B6FEE712B010BDD0
:1010900070470000F8B50446416E4034002915D071
:1010A00000688168806809014D0F0A4E400F37467D
:1010B000315C083F385CC000FFF718F86085785D48
:1010C000715DC000FFF712F82085F8BD0120608532
:1010D000FAE700001A16000810B5018DC90707D0FD
:1010E00001684A6801235B049A43C36A1A434A6051
:1010F000018D890707D501684A6801231B049A43BB
:10110000036B1A434A60018D490707D501684A6895
:1011100001239B049A43436B1A434A60018D0907DC
:1011200007D501684A680123DB039A43836B1A439E
:101130004A60018DC90607D50268916801231B0327
:101140009943C36B19439160018D890607D50168E6
:101150008A6801235B039A43036C1A438A60018DFA
:10116000490612D503685A6801210905446C8A436F
:1011700022435A60426C8A4207D1026851680323B5
:101180005B059943836C19435160018D090607D5AE
:1011900001684A680123DB04C06C9A4302434A6039
:1011A00010BD0000FEB50546002680350446EE6001
:1011B000FFF7F8F8019020680068124F000709D582
:1011C00001210097002249052046019B00F038F9D3
:1011D00000280DD12068006840070BD50121009739
:1011E000002289052046019B00F02AF9002801D041
:1011F0000320FEBD20206860A860E6662E700020F7
:10120000FEBD0000FFFFFF01F8B5044601688068DD
:101210002269E5691043626900262A4310437C4B2A
:101220000A687C4D2A4002430A6020684168032214
:1012300012039143E268114341602168A069994219
:1012400001D0226A10438A68734D2A4002438A60A3
:101250002068C16A626A090909011143C1626F49C4
:1012600022686F488A420AD140698007800F2CD0DB
:1012700001283DD0022828D0032825D122E0694941
:101280008A420AD140690C2108401ED004281CD093
:1012900008282BD00C2817D114E063498A4223D0A8
:1012A00062498A4220D09A420ED1416903208002CD
:1012B000014019D001208002091A19D0091A15D04D
:1012C000814201D1082000E0102001255849594FE2
:1012D000ED039A423FD100280CD002280DD00428FB
:1012E0000DD0082836D10EE00020EEE70220ECE712
:1012F0000420EAE7FFF77CFA03E00D4603E0FFF77E
:101300008BFA05007AD0606A4000395A284600916D
:10131000FEF7ECFE676879007918814269D83903D5
:10132000814266D3002328461946009AFEF7F4FE50
:10133000020E0902030278081143181800225141D5
:101340003A460023FEF7E8FE032109023A4A411A11
:10135000914251D94DE0E269AA4228D1002806D035
:10136000022807D0042807D0082842D108E0FFF758
:101370003FFA03E00D4603E0FFF74EFA05003DD0CB
:10138000606A4000395A2846FEF7B0FE61684000A6
:101390004A088018FEF7AAFE0146284A10399142F1
:1013A00027D8511C01400007400F084324E00028C3
:1013B00006D0022807D0042807D0082819D108E051
:1013C000FFF716FA03E00D4603E0FFF725FA0500E4
:1013D00014D0606A4000395A2846FEF787FE6168DB
:1013E0004A088018FEF782FE0146144A10399142DD
:1013F00001D9012602E080B22168C860204601219F
:101400004030418501850020206760673046F8BD87
:1014100000800040F369FFCFFFF4FF110038014066
:10142000401002400044004000480040004C004092
:101430000024F400FA150008FFFC0F00EFFF000085
:10144000FFB581B005461746044680350A9E54E034
:10145000701C52D0FEF7A6FF0499401AB0422FD854
:10146000002E2DD020680168490746D5C069C043C9
:10147000000542D401202168C0020862EFF3108009
:10148000012181F3108821680B68FF22A132934368
:101490000B6080F31088EFF31080012181F3108836
:1014A00021688A68520852008A6080F310882020E0
:1014B0006860A860E86000202870032005B0F0BDD7
:1014C000EFF31080012181F3108821680A68FF235F
:1014D000A1339A430A6080F31088EFF31080012152
:1014E00081F3108821688A68520852008A6080F36C
:1014F000108820206860A860DDE72068C169029834
:10150000884304D00020B842A2D00020D6E70120B2
:10151000F9E7000010B5024A024900F036F810BDA4
:10152000A9150008100000208307FF22DB0E9A4057
:101530008907090E9940002808DB830809489B00A9
:101540001B18186890430843186070470007000F85
:101550000838830804489B001B18D8699043084347
:10156000D861704700E400E000ED00E002E008C848
:10157000121F08C1002AFAD170477047002001E00D
:1015800001C1121F002AFBD17047F8B516460F465D
:101590000446002503E03946B047641C6D1C2078E2
:1015A0000028F8D12846F8BD13B564230122694606
:1015B0000248FFF765FC00981CBD000014000020E5
:1015C00010B506A0FFF7A6FF052020210007FEF7B3
:1015D000DBFEFF20F530FEF717FE10BD7465737457
:1015E0000D0A0000FEF7ECFEFFF725FDFFF7B6FC45
:1015F000FFF7E6FCFFF7E4FFFCE701000200040050
:10160000060008000A000C001000200040008000C6
:1016100000010101010307010000080402040801A0
:1016200001010000000000000000000000000000B8
:1016300000000000000000000000000000000000AA
:101640000000000001000000020000000300000094
:101650000400000006000000070000000800000071
:101660000900000000000000000000000000000071
:101670000000000001000000020000000300000064
:1016800004000000A4160008000000201400000060
:101690006C150008B816000814000020940400001F
:1016A0007C1500080100000004000000000000009C
:0816B0000024F400000000001A
:04000005080000BD32
:00000001FF
